{"abi":[{"type":"constructor","inputs":[],"stateMutability":"nonpayable"},{"type":"receive","stateMutability":"payable"},{"type":"function","name":"WAGER","inputs":[],"outputs":[{"name":"","type":"uint256","internalType":"uint256"}],"stateMutability":"view"},{"type":"function","name":"WIN_PAYOUT","inputs":[],"outputs":[{"name":"","type":"uint256","internalType":"uint256"}],"stateMutability":"view"},{"type":"function","name":"depositHouseFunds","inputs":[],"outputs":[],"stateMutability":"payable"},{"type":"function","name":"duelAI","inputs":[{"name":"pMove","type":"uint256","internalType":"suint"}],"outputs":[],"stateMutability":"payable"},{"type":"function","name":"getLeaderboard","inputs":[],"outputs":[{"name":"","type":"address[]","internalType":"address[]"},{"name":"","type":"uint256[]","internalType":"uint256[]"}],"stateMutability":"view"},{"type":"function","name":"owner","inputs":[],"outputs":[{"name":"","type":"address","internalType":"address"}],"stateMutability":"view"},{"type":"function","name":"playerList","inputs":[{"name":"","type":"uint256","internalType":"uint256"}],"outputs":[{"name":"","type":"address","internalType":"address"}],"stateMutability":"view"},{"type":"function","name":"stats","inputs":[{"name":"","type":"address","internalType":"address"}],"outputs":[{"name":"wins","type":"uint256","internalType":"uint256"},{"name":"exists","type":"bool","internalType":"bool"}],"stateMutability":"view"},{"type":"function","name":"withdrawHouseFunds","inputs":[{"name":"amount","type":"uint256","internalType":"uint256"}],"outputs":[],"stateMutability":"nonpayable"},{"type":"event","name":"DuelResolved","inputs":[{"name":"player","type":"address","indexed":true,"internalType":"address"},{"name":"playerMove","type":"uint256","indexed":false,"internalType":"uint256"},{"name":"aiMove","type":"uint256","indexed":false,"internalType":"uint256"},{"name":"winner","type":"address","indexed":false,"internalType":"address"},{"name":"payout","type":"uint256","indexed":false,"internalType":"uint256"}],"anonymous":false},{"type":"event","name":"HouseFunded","inputs":[{"name":"donor","type":"address","indexed":true,"internalType":"address"},{"name":"amount","type":"uint256","indexed":false,"internalType":"uint256"}],"anonymous":false}],"bytecode":{"object":"0x6080604052348015600e575f5ffd5b50335f5f6101000a81548173ffffffffffffffffffffffffffffffffffffffff021916908373ffffffffffffffffffffffffffffffffffffffff1602179055506111f98061005b5f395ff3fe608060405260043610610089575f3560e01c80638bcdcbf3116100585780638bcdcbf3146101895780638da5cb5b146101c6578063a07ccee9146101f0578063ada2abba146101fa578063ae6d907314610216576100de565b8063213eb8ff146100e257806365174b7c1461010c5780636d763a6e146101365780637d59441a14610161576100de565b366100de573373ffffffffffffffffffffffffffffffffffffffff167f68b5652e3b29601ecd57e94e383b10ba5e2f2726963da06839bb31da7e5dd0d9346040516100d49190610a17565b60405180910390a2005b5f5ffd5b3480156100ed575f5ffd5b506100f6610252565b6040516101039190610a17565b60405180910390f35b348015610117575f5ffd5b5061012061025d565b60405161012d9190610a17565b60405180910390f35b348015610141575f5ffd5b5061014a610268565b604051610158929190610bce565b60405180910390f35b34801561016c575f5ffd5b5061018760048036038101906101829190610c31565b610436565b005b348015610194575f5ffd5b506101af60048036038101906101aa9190610c86565b61052b565b6040516101bd929190610ccb565b60405180910390f35b3480156101d1575f5ffd5b506101da610557565b6040516101e79190610d01565b60405180910390f35b6101f861057b565b005b610214600480360381019061020f9190610d44565b6105cb565b005b348015610221575f5ffd5b5061023c60048036038101906102379190610c31565b6109c4565b6040516102499190610d01565b60405180910390f35b662386f26fc1000081565b663c6568f12e800081565b6060805f60028054905090505f8167ffffffffffffffff81111561028f5761028e610d6f565b5b6040519080825280602002602001820160405280156102bd5781602001602082028036833780820191505090505b5090505f8267ffffffffffffffff8111156102db576102da610d6f565b5b6040519080825280602002602001820160405280156103095781602001602082028036833780820191505090505b5090505f5f90505b83811015610428576002818154811061032d5761032c610d9c565b5b905f5260205f20015f9054906101000a900473ffffffffffffffffffffffffffffffffffffffff1683828151811061036857610367610d9c565b5b602002602001019073ffffffffffffffffffffffffffffffffffffffff16908173ffffffffffffffffffffffffffffffffffffffff168152505060015f8483815181106103b8576103b7610d9c565b5b602002602001015173ffffffffffffffffffffffffffffffffffffffff1673ffffffffffffffffffffffffffffffffffffffff1681526020019081526020015f205f015482828151811061040f5761040e610d9c565b5b6020026020010181815250508080600101915050610311565b508181945094505050509091565b5f5f9054906101000a900473ffffffffffffffffffffffffffffffffffffffff1673ffffffffffffffffffffffffffffffffffffffff163373ffffffffffffffffffffffffffffffffffffffff16146104c4576040517f08c379a00000000000000000000000000000000000000000000000000000000081526004016104bb90610e23565b60405180910390fd5b5f5f9054906101000a900473ffffffffffffffffffffffffffffffffffffffff1673ffffffffffffffffffffffffffffffffffffffff166108fc8290811502906040515f60405180830381858888f19350505050158015610527573d5f5f3e3d5ffd5b5050565b6001602052805f5260405f205f91509050805f015490806001015f9054906101000a900460ff16905082565b5f5f9054906101000a900473ffffffffffffffffffffffffffffffffffffffff1681565b3373ffffffffffffffffffffffffffffffffffffffff167f68b5652e3b29601ecd57e94e383b10ba5e2f2726963da06839bb31da7e5dd0d9346040516105c19190610a17565b60405180910390a2565b662386f26fc100003414610614576040517f08c379a000000000000000000000000000000000000000000000000000000000815260040161060b90610e8b565b60405180910390fd5b663c6568f12e800047101561065e576040517f08c379a000000000000000000000000000000000000000000000000000000000815260040161065590610ef3565b60405180910390fd5b5f81905060018110158015610674575060038111155b6106b3576040517f08c379a00000000000000000000000000000000000000000000000000000000081526004016106aa90610f5b565b60405180910390fd5b5f600160644233446040516020016106cd93929190610fde565b604051602081830303815290604052805190602001205f1c6106ef9190611047565b6106f991906110a4565b90505f5f5f60288411610946576001600360018761071791906110a4565b6107219190611047565b61072b91906110a4565b9250339150663c6568f12e8000905060015f3373ffffffffffffffffffffffffffffffffffffffff1673ffffffffffffffffffffffffffffffffffffffff1681526020019081526020015f206001015f9054906101000a900460ff16610843576001805f3373ffffffffffffffffffffffffffffffffffffffff1673ffffffffffffffffffffffffffffffffffffffff1681526020019081526020015f206001015f6101000a81548160ff021916908315150217905550600233908060018154018082558091505060019003905f5260205f20015f9091909190916101000a81548173ffffffffffffffffffffffffffffffffffffffff021916908373ffffffffffffffffffffffffffffffffffffffff1602179055505b6001805f3373ffffffffffffffffffffffffffffffffffffffff1673ffffffffffffffffffffffffffffffffffffffff1681526020019081526020015f205f015f82825461089191906110a4565b925050819055505f3373ffffffffffffffffffffffffffffffffffffffff16826040516108bd90611104565b5f6040518083038185875af1925050503d805f81146108f7576040519150601f19603f3d011682016040523d82523d5f602084013e6108fc565b606091505b5050905080610940576040517f08c379a000000000000000000000000000000000000000000000000000000000815260040161093790611162565b60405180910390fd5b50610968565b60016003866109559190611047565b61095f91906110a4565b92503091505f90505b3373ffffffffffffffffffffffffffffffffffffffff167f7e60f8acfb2c952e23ec1235e55531309546cafc057cd7d1da3527dc439f7786868585856040516109b49493929190611180565b60405180910390a2505050505050565b600281815481106109d3575f80fd5b905f5260205f20015f915054906101000a900473ffffffffffffffffffffffffffffffffffffffff1681565b5f819050919050565b610a11816109ff565b82525050565b5f602082019050610a2a5f830184610a08565b92915050565b5f81519050919050565b5f82825260208201905092915050565b5f819050602082019050919050565b5f73ffffffffffffffffffffffffffffffffffffffff82169050919050565b5f610a8282610a59565b9050919050565b610a9281610a78565b82525050565b5f610aa38383610a89565b60208301905092915050565b5f602082019050919050565b5f610ac582610a30565b610acf8185610a3a565b9350610ada83610a4a565b805f5b83811015610b0a578151610af18882610a98565b9750610afc83610aaf565b925050600181019050610add565b5085935050505092915050565b5f81519050919050565b5f82825260208201905092915050565b5f819050602082019050919050565b610b49816109ff565b82525050565b5f610b5a8383610b40565b60208301905092915050565b5f602082019050919050565b5f610b7c82610b17565b610b868185610b21565b9350610b9183610b31565b805f5b83811015610bc1578151610ba88882610b4f565b9750610bb383610b66565b925050600181019050610b94565b5085935050505092915050565b5f6040820190508181035f830152610be68185610abb565b90508181036020830152610bfa8184610b72565b90509392505050565b5f5ffd5b610c10816109ff565b8114610c1a575f5ffd5b50565b5f81359050610c2b81610c07565b92915050565b5f60208284031215610c4657610c45610c03565b5b5f610c5384828501610c1d565b91505092915050565b610c6581610a78565b8114610c6f575f5ffd5b50565b5f81359050610c8081610c5c565b92915050565b5f60208284031215610c9b57610c9a610c03565b5b5f610ca884828501610c72565b91505092915050565b5f8115159050919050565b610cc581610cb1565b82525050565b5f604082019050610cde5f830185610a08565b610ceb6020830184610cbc565b9392505050565b610cfb81610a78565b82525050565b5f602082019050610d145f830184610cf2565b92915050565b610d23816109ff565b8114610d2d575f5ffd5b50565b5f81359050610d3e81610d1a565b92915050565b5f60208284031215610d5957610d58610c03565b5b5f610d6684828501610d30565b91505092915050565b7f4e487b71000000000000000000000000000000000000000000000000000000005f52604160045260245ffd5b7f4e487b71000000000000000000000000000000000000000000000000000000005f52603260045260245ffd5b5f82825260208201905092915050565b7f4f6e6c79206f776e65722063616e2077697468647261770000000000000000005f82015250565b5f610e0d601783610dc9565b9150610e1882610dd9565b602082019050919050565b5f6020820190508181035f830152610e3a81610e01565b9050919050565b7f4d7573742073656e642065786163746c7920302e3031205345495300000000005f82015250565b5f610e75601b83610dc9565b9150610e8082610e41565b602082019050919050565b5f6020820190508181035f830152610ea281610e69565b9050919050565b7f496e73756666696369656e7420486f7573652046756e647300000000000000005f82015250565b5f610edd601883610dc9565b9150610ee882610ea9565b602082019050919050565b5f6020820190508181035f830152610f0a81610ed1565b9050919050565b7f496e76616c6964206d6f766500000000000000000000000000000000000000005f82015250565b5f610f45600c83610dc9565b9150610f5082610f11565b602082019050919050565b5f6020820190508181035f830152610f7281610f39565b9050919050565b5f819050919050565b610f93610f8e826109ff565b610f79565b82525050565b5f8160601b9050919050565b5f610faf82610f99565b9050919050565b5f610fc082610fa5565b9050919050565b610fd8610fd382610a78565b610fb6565b82525050565b5f610fe98286610f82565b602082019150610ff98285610fc7565b6014820191506110098284610f82565b602082019150819050949350505050565b7f4e487b71000000000000000000000000000000000000000000000000000000005f52601260045260245ffd5b5f611051826109ff565b915061105c836109ff565b92508261106c5761106b61101a565b5b828206905092915050565b7f4e487b71000000000000000000000000000000000000000000000000000000005f52601160045260245ffd5b5f6110ae826109ff565b91506110b9836109ff565b92508282019050808211156110d1576110d0611077565b5b92915050565b5f81905092915050565b50565b5f6110ef5f836110d7565b91506110fa826110e1565b5f82019050919050565b5f61110e826110e4565b9150819050919050565b7f5061796f7574206661696c6564000000000000000000000000000000000000005f82015250565b5f61114c600d83610dc9565b915061115782611118565b602082019050919050565b5f6020820190508181035f83015261117981611140565b9050919050565b5f6080820190506111935f830187610a08565b6111a06020830186610a08565b6111ad6040830185610cf2565b6111ba6060830184610a08565b9594505050505056fea2646970667358221220306540211fecd3a3dbc051d889f00a88758a84025ab253ab2089a2d25954612164736f6c63430008220033","linkReferences":{}},"methodIdentifiers":{"WAGER()":"213eb8ff","WIN_PAYOUT()":"65174b7c","depositHouseFunds()":"a07ccee9","duelAI(uint256)":"ada2abba","getLeaderboard()":"6d763a6e","owner()":"8da5cb5b","playerList(uint256)":"ae6d9073","stats(address)":"8bcdcbf3","withdrawHouseFunds(uint256)":"7d59441a"},"id":16}