{"abi":[{"type":"constructor","inputs":[],"stateMutability":"nonpayable"},{"type":"receive","stateMutability":"payable"},{"type":"function","name":"WAGER","inputs":[],"outputs":[{"name":"","type":"uint256","internalType":"uint256"}],"stateMutability":"view"},{"type":"function","name":"WIN_PAYOUT","inputs":[],"outputs":[{"name":"","type":"uint256","internalType":"uint256"}],"stateMutability":"view"},{"type":"function","name":"depositHouseFunds","inputs":[],"outputs":[],"stateMutability":"payable"},{"type":"function","name":"duelAI","inputs":[{"name":"pMove","type":"uint256","internalType":"suint"}],"outputs":[],"stateMutability":"payable"},{"type":"function","name":"owner","inputs":[],"outputs":[{"name":"","type":"address","internalType":"address"}],"stateMutability":"view"},{"type":"function","name":"withdrawHouseFunds","inputs":[{"name":"amount","type":"uint256","internalType":"uint256"}],"outputs":[],"stateMutability":"nonpayable"},{"type":"event","name":"DuelResolved","inputs":[{"name":"player","type":"address","indexed":true,"internalType":"address"},{"name":"playerMove","type":"uint256","indexed":false,"internalType":"uint256"},{"name":"aiMove","type":"uint256","indexed":false,"internalType":"uint256"},{"name":"winner","type":"address","indexed":false,"internalType":"address"},{"name":"payout","type":"uint256","indexed":false,"internalType":"uint256"}],"anonymous":false},{"type":"event","name":"HouseFunded","inputs":[{"name":"donor","type":"address","indexed":true,"internalType":"address"},{"name":"amount","type":"uint256","indexed":false,"internalType":"uint256"}],"anonymous":false}],"bytecode":{"object":"0x6080604052348015600e575f5ffd5b50335f5f6101000a81548173ffffffffffffffffffffffffffffffffffffffff021916908373ffffffffffffffffffffffffffffffffffffffff160217905550610afe8061005b5f395ff3fe608060405260043610610058575f3560e01c8063213eb8ff146100b157806365174b7c146100db5780637d59441a146101055780638da5cb5b1461012d578063a07ccee914610157578063ada2abba14610161576100ad565b366100ad573373ffffffffffffffffffffffffffffffffffffffff167f68b5652e3b29601ecd57e94e383b10ba5e2f2726963da06839bb31da7e5dd0d9346040516100a391906105af565b60405180910390a2005b5f5ffd5b3480156100bc575f5ffd5b506100c561017d565b6040516100d291906105af565b60405180910390f35b3480156100e6575f5ffd5b506100ef610188565b6040516100fc91906105af565b60405180910390f35b348015610110575f5ffd5b5061012b600480360381019061012691906105f6565b610193565b005b348015610138575f5ffd5b50610141610288565b60405161014e9190610660565b60405180910390f35b61015f6102ac565b005b61017b600480360381019061017691906106a3565b6102fc565b005b662386f26fc1000081565b663c6568f12e800081565b5f5f9054906101000a900473ffffffffffffffffffffffffffffffffffffffff1673ffffffffffffffffffffffffffffffffffffffff163373ffffffffffffffffffffffffffffffffffffffff1614610221576040517f08c379a000000000000000000000000000000000000000000000000000000000815260040161021890610728565b60405180910390fd5b5f5f9054906101000a900473ffffffffffffffffffffffffffffffffffffffff1673ffffffffffffffffffffffffffffffffffffffff166108fc8290811502906040515f60405180830381858888f19350505050158015610284573d5f5f3e3d5ffd5b5050565b5f5f9054906101000a900473ffffffffffffffffffffffffffffffffffffffff1681565b3373ffffffffffffffffffffffffffffffffffffffff167f68b5652e3b29601ecd57e94e383b10ba5e2f2726963da06839bb31da7e5dd0d9346040516102f291906105af565b60405180910390a2565b662386f26fc100003414610345576040517f08c379a000000000000000000000000000000000000000000000000000000000815260040161033c90610790565b60405180910390fd5b663c6568f12e800047101561038f576040517f08c379a0000000000000000000000000000000000000000000000000000000008152600401610386906107f8565b60405180910390fd5b5f819050600181101580156103a5575060038111155b6103e4576040517f08c379a00000000000000000000000000000000000000000000000000000000081526004016103db90610860565b60405180910390fd5b5f600160644233446040516020016103fe939291906108e3565b604051602081830303815290604052805190602001205f1c610420919061094c565b61042a91906109a9565b90505f5f5f60288411610519576001600360018761044891906109a9565b610452919061094c565b61045c91906109a9565b9250339150663c6568f12e800090505f3373ffffffffffffffffffffffffffffffffffffffff168260405161049090610a09565b5f6040518083038185875af1925050503d805f81146104ca576040519150601f19603f3d011682016040523d82523d5f602084013e6104cf565b606091505b5050905080610513576040517f08c379a000000000000000000000000000000000000000000000000000000000815260040161050a90610a67565b60405180910390fd5b5061053b565b6001600386610528919061094c565b61053291906109a9565b92503091505f90505b3373ffffffffffffffffffffffffffffffffffffffff167f7e60f8acfb2c952e23ec1235e55531309546cafc057cd7d1da3527dc439f7786868585856040516105879493929190610a85565b60405180910390a2505050505050565b5f819050919050565b6105a981610597565b82525050565b5f6020820190506105c25f8301846105a0565b92915050565b5f5ffd5b6105d581610597565b81146105df575f5ffd5b50565b5f813590506105f0816105cc565b92915050565b5f6020828403121561060b5761060a6105c8565b5b5f610618848285016105e2565b91505092915050565b5f73ffffffffffffffffffffffffffffffffffffffff82169050919050565b5f61064a82610621565b9050919050565b61065a81610640565b82525050565b5f6020820190506106735f830184610651565b92915050565b61068281610597565b811461068c575f5ffd5b50565b5f8135905061069d81610679565b92915050565b5f602082840312156106b8576106b76105c8565b5b5f6106c58482850161068f565b91505092915050565b5f82825260208201905092915050565b7f4f6e6c79206f776e65722063616e2077697468647261770000000000000000005f82015250565b5f6107126017836106ce565b915061071d826106de565b602082019050919050565b5f6020820190508181035f83015261073f81610706565b9050919050565b7f4d7573742073656e642065786163746c7920302e3031205345495300000000005f82015250565b5f61077a601b836106ce565b915061078582610746565b602082019050919050565b5f6020820190508181035f8301526107a78161076e565b9050919050565b7f496e73756666696369656e7420486f7573652046756e647300000000000000005f82015250565b5f6107e26018836106ce565b91506107ed826107ae565b602082019050919050565b5f6020820190508181035f83015261080f816107d6565b9050919050565b7f496e76616c6964206d6f766500000000000000000000000000000000000000005f82015250565b5f61084a600c836106ce565b915061085582610816565b602082019050919050565b5f6020820190508181035f8301526108778161083e565b9050919050565b5f819050919050565b61089861089382610597565b61087e565b82525050565b5f8160601b9050919050565b5f6108b48261089e565b9050919050565b5f6108c5826108aa565b9050919050565b6108dd6108d882610640565b6108bb565b82525050565b5f6108ee8286610887565b6020820191506108fe82856108cc565b60148201915061090e8284610887565b602082019150819050949350505050565b7f4e487b71000000000000000000000000000000000000000000000000000000005f52601260045260245ffd5b5f61095682610597565b915061096183610597565b9250826109715761097061091f565b5b828206905092915050565b7f4e487b71000000000000000000000000000000000000000000000000000000005f52601160045260245ffd5b5f6109b382610597565b91506109be83610597565b92508282019050808211156109d6576109d561097c565b5b92915050565b5f81905092915050565b50565b5f6109f45f836109dc565b91506109ff826109e6565b5f82019050919050565b5f610a13826109e9565b9150819050919050565b7f5061796f7574206661696c6564000000000000000000000000000000000000005f82015250565b5f610a51600d836106ce565b9150610a5c82610a1d565b602082019050919050565b5f6020820190508181035f830152610a7e81610a45565b9050919050565b5f608082019050610a985f8301876105a0565b610aa560208301866105a0565b610ab26040830185610651565b610abf60608301846105a0565b9594505050505056fea26469706673582212204604926110c0917ccb90ff3d5e1bdf38ca0d37663c761b7ddbd98285dee90af264736f6c63430008220033","linkReferences":{}},"methodIdentifiers":{"WAGER()":"213eb8ff","WIN_PAYOUT()":"65174b7c","depositHouseFunds()":"a07ccee9","duelAI(uint256)":"ada2abba","owner()":"8da5cb5b","withdrawHouseFunds(uint256)":"7d59441a"},"id":16}