{"abi":[{"type":"constructor","inputs":[],"stateMutability":"nonpayable"},{"type":"receive","stateMutability":"payable"},{"type":"function","name":"WAGER","inputs":[],"outputs":[{"name":"","type":"uint256","internalType":"uint256"}],"stateMutability":"view"},{"type":"function","name":"WIN_PAYOUT","inputs":[],"outputs":[{"name":"","type":"uint256","internalType":"uint256"}],"stateMutability":"view"},{"type":"function","name":"depositHouseFunds","inputs":[],"outputs":[],"stateMutability":"payable"},{"type":"function","name":"duelAI","inputs":[{"name":"pMove","type":"uint256","internalType":"suint"}],"outputs":[],"stateMutability":"payable"},{"type":"function","name":"owner","inputs":[],"outputs":[{"name":"","type":"address","internalType":"address"}],"stateMutability":"view"},{"type":"function","name":"withdrawHouseFunds","inputs":[{"name":"amount","type":"uint256","internalType":"uint256"}],"outputs":[],"stateMutability":"nonpayable"},{"type":"event","name":"DuelResolved","inputs":[{"name":"player","type":"address","indexed":true,"internalType":"address"},{"name":"playerMove","type":"uint256","indexed":false,"internalType":"uint256"},{"name":"aiMove","type":"uint256","indexed":false,"internalType":"uint256"},{"name":"winner","type":"address","indexed":false,"internalType":"address"},{"name":"payout","type":"uint256","indexed":false,"internalType":"uint256"}],"anonymous":false},{"type":"event","name":"HouseFunded","inputs":[{"name":"donor","type":"address","indexed":true,"internalType":"address"},{"name":"amount","type":"uint256","indexed":false,"internalType":"uint256"}],"anonymous":false}],"bytecode":{"object":"0x6080604052348015600e575f5ffd5b50335f5f6101000a81548173ffffffffffffffffffffffffffffffffffffffff021916908373ffffffffffffffffffffffffffffffffffffffff160217905550610c6c8061005b5f395ff3fe608060405260043610610058575f3560e01c8063213eb8ff146100b157806365174b7c146100db5780637d59441a146101055780638da5cb5b1461012d578063a07ccee914610157578063ada2abba14610161576100ad565b366100ad573373ffffffffffffffffffffffffffffffffffffffff167f68b5652e3b29601ecd57e94e383b10ba5e2f2726963da06839bb31da7e5dd0d9346040516100a3919061065c565b60405180910390a2005b5f5ffd5b3480156100bc575f5ffd5b506100c561017d565b6040516100d2919061065c565b60405180910390f35b3480156100e6575f5ffd5b506100ef610188565b6040516100fc919061065c565b60405180910390f35b348015610110575f5ffd5b5061012b600480360381019061012691906106a3565b610193565b005b348015610138575f5ffd5b50610141610288565b60405161014e919061070d565b60405180910390f35b61015f6102ac565b005b61017b60048036038101906101769190610750565b6102fc565b005b662386f26fc1000081565b663c6568f12e800081565b5f5f9054906101000a900473ffffffffffffffffffffffffffffffffffffffff1673ffffffffffffffffffffffffffffffffffffffff163373ffffffffffffffffffffffffffffffffffffffff1614610221576040517f08c379a0000000000000000000000000000000000000000000000000000000008152600401610218906107d5565b60405180910390fd5b5f5f9054906101000a900473ffffffffffffffffffffffffffffffffffffffff1673ffffffffffffffffffffffffffffffffffffffff166108fc8290811502906040515f60405180830381858888f19350505050158015610284573d5f5f3e3d5ffd5b5050565b5f5f9054906101000a900473ffffffffffffffffffffffffffffffffffffffff1681565b3373ffffffffffffffffffffffffffffffffffffffff167f68b5652e3b29601ecd57e94e383b10ba5e2f2726963da06839bb31da7e5dd0d9346040516102f2919061065c565b60405180910390a2565b662386f26fc100003414610345576040517f08c379a000000000000000000000000000000000000000000000000000000000815260040161033c9061083d565b60405180910390fd5b663c6568f12e800047101561038f576040517f08c379a0000000000000000000000000000000000000000000000000000000008152600401610386906108a5565b60405180910390fd5b5f819050600181101580156103a5575060038111155b6103e4576040517f08c379a00000000000000000000000000000000000000000000000000000000081526004016103db90610933565b60405180910390fd5b5f600160034233446040516020016103fe939291906109b6565b604051602081830303815290604052805190602001205f1c6104209190610a1f565b61042a9190610a7c565b90505f5f90505f5f90505f6003846003876104459190610a7c565b61044f9190610aaf565b6104599190610a1f565b90505f810361051d575f9250662386f26fc1000091505f3373ffffffffffffffffffffffffffffffffffffffff168360405161049490610b0f565b5f6040518083038185875af1925050503d805f81146104ce576040519150601f19603f3d011682016040523d82523d5f602084013e6104d3565b606091505b5050905080610517576040517f08c379a000000000000000000000000000000000000000000000000000000000815260040161050e90610b6d565b60405180910390fd5b506105e8565b600181036105e057339250663c6568f12e800091505f3373ffffffffffffffffffffffffffffffffffffffff168360405161055790610b0f565b5f6040518083038185875af1925050503d805f8114610591576040519150601f19603f3d011682016040523d82523d5f602084013e610596565b606091505b50509050806105da576040517f08c379a00000000000000000000000000000000000000000000000000000000081526004016105d190610bd5565b60405180910390fd5b506105e7565b3092505f91505b5b3373ffffffffffffffffffffffffffffffffffffffff167f7e60f8acfb2c952e23ec1235e55531309546cafc057cd7d1da3527dc439f7786868686866040516106349493929190610bf3565b60405180910390a2505050505050565b5f819050919050565b61065681610644565b82525050565b5f60208201905061066f5f83018461064d565b92915050565b5f5ffd5b61068281610644565b811461068c575f5ffd5b50565b5f8135905061069d81610679565b92915050565b5f602082840312156106b8576106b7610675565b5b5f6106c58482850161068f565b91505092915050565b5f73ffffffffffffffffffffffffffffffffffffffff82169050919050565b5f6106f7826106ce565b9050919050565b610707816106ed565b82525050565b5f6020820190506107205f8301846106fe565b92915050565b61072f81610644565b8114610739575f5ffd5b50565b5f8135905061074a81610726565b92915050565b5f6020828403121561076557610764610675565b5b5f6107728482850161073c565b91505092915050565b5f82825260208201905092915050565b7f4f6e6c79206f776e65722063616e2077697468647261770000000000000000005f82015250565b5f6107bf60178361077b565b91506107ca8261078b565b602082019050919050565b5f6020820190508181035f8301526107ec816107b3565b9050919050565b7f4d7573742073656e642065786163746c7920302e3031205345495300000000005f82015250565b5f610827601b8361077b565b9150610832826107f3565b602082019050919050565b5f6020820190508181035f8301526108548161081b565b9050919050565b7f496e73756666696369656e7420486f7573652046756e647300000000000000005f82015250565b5f61088f60188361077b565b915061089a8261085b565b602082019050919050565b5f6020820190508181035f8301526108bc81610883565b9050919050565b7f496e76616c6964206d6f76653a20313d526f636b2c20323d50617065722c20335f8201527f3d53636973736f72730000000000000000000000000000000000000000000000602082015250565b5f61091d60298361077b565b9150610928826108c3565b604082019050919050565b5f6020820190508181035f83015261094a81610911565b9050919050565b5f819050919050565b61096b61096682610644565b610951565b82525050565b5f8160601b9050919050565b5f61098782610971565b9050919050565b5f6109988261097d565b9050919050565b6109b06109ab826106ed565b61098e565b82525050565b5f6109c1828661095a565b6020820191506109d1828561099f565b6014820191506109e1828461095a565b602082019150819050949350505050565b7f4e487b71000000000000000000000000000000000000000000000000000000005f52601260045260245ffd5b5f610a2982610644565b9150610a3483610644565b925082610a4457610a436109f2565b5b828206905092915050565b7f4e487b71000000000000000000000000000000000000000000000000000000005f52601160045260245ffd5b5f610a8682610644565b9150610a9183610644565b9250828201905080821115610aa957610aa8610a4f565b5b92915050565b5f610ab982610644565b9150610ac483610644565b9250828203905081811115610adc57610adb610a4f565b5b92915050565b5f81905092915050565b50565b5f610afa5f83610ae2565b9150610b0582610aec565b5f82019050919050565b5f610b1982610aef565b9150819050919050565b7f526566756e64206661696c6564000000000000000000000000000000000000005f82015250565b5f610b57600d8361077b565b9150610b6282610b23565b602082019050919050565b5f6020820190508181035f830152610b8481610b4b565b9050919050565b7f5061796f7574206661696c6564000000000000000000000000000000000000005f82015250565b5f610bbf600d8361077b565b9150610bca82610b8b565b602082019050919050565b5f6020820190508181035f830152610bec81610bb3565b9050919050565b5f608082019050610c065f83018761064d565b610c13602083018661064d565b610c2060408301856106fe565b610c2d606083018461064d565b9594505050505056fea2646970667358221220fd299a23335d0336bd7e277e1af508faf5169e6042fc55ca014fa25a610fc5c464736f6c63430008220033","linkReferences":{}},"methodIdentifiers":{"WAGER()":"213eb8ff","WIN_PAYOUT()":"65174b7c","depositHouseFunds()":"a07ccee9","duelAI(uint256)":"ada2abba","owner()":"8da5cb5b","withdrawHouseFunds(uint256)":"7d59441a"},"id":16}