{"abi":[{"type":"constructor","inputs":[],"stateMutability":"nonpayable"},{"type":"function","name":"commitMove","inputs":[{"name":"duelId","type":"uint256","internalType":"uint256"},{"name":"_move","type":"uint256","internalType":"suint"}],"outputs":[],"stateMutability":"nonpayable"},{"type":"function","name":"createPrivateGame","inputs":[{"name":"_code","type":"uint256","internalType":"suint"},{"name":"_wager","type":"uint256","internalType":"suint"}],"outputs":[],"stateMutability":"payable"},{"type":"function","name":"joinPrivateGame","inputs":[{"name":"duelId","type":"uint256","internalType":"uint256"},{"name":"_attemptCode","type":"uint256","internalType":"suint"}],"outputs":[],"stateMutability":"payable"},{"type":"function","name":"joinRandomQueue","inputs":[{"name":"_wager","type":"uint256","internalType":"suint"}],"outputs":[],"stateMutability":"payable"},{"type":"function","name":"nextDuelId","inputs":[],"outputs":[{"name":"","type":"uint256","internalType":"uint256"}],"stateMutability":"view"},{"type":"function","name":"owner","inputs":[],"outputs":[{"name":"","type":"address","internalType":"address"}],"stateMutability":"view"},{"type":"function","name":"randomQueue","inputs":[{"name":"","type":"uint256","internalType":"uint256"}],"outputs":[{"name":"","type":"uint256","internalType":"uint256"}],"stateMutability":"view"},{"type":"function","name":"resolveDuel","inputs":[{"name":"duelId","type":"uint256","internalType":"uint256"}],"outputs":[],"stateMutability":"nonpayable"},{"type":"function","name":"setOwner","inputs":[{"name":"_owner","type":"address","internalType":"address"}],"outputs":[],"stateMutability":"nonpayable"},{"type":"event","name":"DuelCreated","inputs":[{"name":"duelId","type":"uint256","indexed":true,"internalType":"uint256"},{"name":"isPrivate","type":"bool","indexed":false,"internalType":"bool"},{"name":"creator","type":"address","indexed":true,"internalType":"address"}],"anonymous":false},{"type":"event","name":"DuelResolved","inputs":[{"name":"duelId","type":"uint256","indexed":true,"internalType":"uint256"},{"name":"winner","type":"address","indexed":false,"internalType":"address"}],"anonymous":false},{"type":"event","name":"MatchFound","inputs":[{"name":"duelId","type":"uint256","indexed":true,"internalType":"uint256"}],"anonymous":false},{"type":"event","name":"MoveCommitted","inputs":[{"name":"duelId","type":"uint256","indexed":true,"internalType":"uint256"},{"name":"player","type":"address","indexed":true,"internalType":"address"}],"anonymous":false},{"type":"event","name":"PlayerJoined","inputs":[{"name":"duelId","type":"uint256","indexed":true,"internalType":"uint256"},{"name":"player","type":"address","indexed":true,"internalType":"address"}],"anonymous":false}],"bytecode":{"object":"0x6080604052348015600e575f5ffd5b50335f5f6101000a81548173ffffffffffffffffffffffffffffffffffffffff021916908373ffffffffffffffffffffffffffffffffffffffff1602179055506115b28061005b5f395ff3fe608060405260043610610085575f3560e01c80638da5cb5b116100585780638da5cb5b14610113578063988f40431461013d578063cdd69a1214610165578063ce2ff57e1461018d578063d5ab18d3146101a957610085565b806313af403514610089578063549ec614146100b15780636b47db7e146100db5780637b21849a146100f7575b5f5ffd5b348015610094575f5ffd5b506100af60048036038101906100aa9190610e30565b6101e5565b005b3480156100bc575f5ffd5b506100c56102b5565b6040516100d29190610e73565b60405180910390f35b6100f560048036038101906100f09190610eb6565b6102bb565b005b610111600480360381019061010c9190610f1e565b610448565b005b34801561011e575f5ffd5b506101276105d4565b6040516101349190610f6b565b60405180910390f35b348015610148575f5ffd5b50610163600480360381019061015e9190610f1e565b6105f8565b005b348015610170575f5ffd5b5061018b60048036038101906101869190610f84565b6106d3565b005b6101a760048036038101906101a29190610faf565b6106df565b005b3480156101b4575f5ffd5b506101cf60048036038101906101ca9190610f84565b6109f0565b6040516101dc9190610e73565b60405180910390f35b5f5f9054906101000a900473ffffffffffffffffffffffffffffffffffffffff1673ffffffffffffffffffffffffffffffffffffffff163373ffffffffffffffffffffffffffffffffffffffff1614610273576040517f08c379a000000000000000000000000000000000000000000000000000000000815260040161026a90611034565b60405180910390fd5b805f5f6101000a81548173ffffffffffffffffffffffffffffffffffffffff021916908373ffffffffffffffffffffffffffffffffffffffff16021790555050565b60055481565b5f819050803414610301576040517f08c379a00000000000000000000000000000000000000000000000000000000081526004016102f89061109c565b60405180910390fd5b5f60055f815480929190610314906110e7565b9190505590503360025f8381526020019081526020015f205f015f6101000a81548173ffffffffffffffffffffffffffffffffffffffff021916908373ffffffffffffffffffffffffffffffffffffffff1602179055508260025f8381526020019081526020015f2060040181905550600160025f8381526020019081526020015f206005015f6101000a81548160ff0219169083151502179055505f60025f8381526020019081526020015f2060050160016101000a81548160ff0219169083151502179055508360035f8381526020019081526020015f20819055503373ffffffffffffffffffffffffffffffffffffffff16817f1a359d6c577b59d148bb1a420ef38ac4a389b04a5886d9de3fb3259c79e2576b600160405161043a9190611148565b60405180910390a350505050565b5f60025f8481526020019081526020015f209050806005015f9054906101000a900460ff166104ac576040517f08c379a00000000000000000000000000000000000000000000000000000000081526004016104a3906111ab565b60405180910390fd5b8060050160019054906101000a900460ff16156104fe576040517f08c379a00000000000000000000000000000000000000000000000000000000081526004016104f590611213565b60405180910390fd5b5f81600401549050803414610548576040517f08c379a000000000000000000000000000000000000000000000000000000000815260040161053f9061109c565b60405180910390fd5b33826001015f6101000a81548173ffffffffffffffffffffffffffffffffffffffff021916908373ffffffffffffffffffffffffffffffffffffffff1602179055503373ffffffffffffffffffffffffffffffffffffffff16847f87969bc7faf902221a147b95ceba76e011c5efb0339a0a8ee7a2bb82d9cfbbd660405160405180910390a350505050565b5f5f9054906101000a900473ffffffffffffffffffffffffffffffffffffffff1681565b5f60025f8481526020019081526020015f2090508060050160019054906101000a900460ff161561065e576040517f08c379a00000000000000000000000000000000000000000000000000000000081526004016106559061127b565b60405180910390fd5b5f8160020154036106775781816002018190555061068a565b81816003018190555061068983610a10565b5b3373ffffffffffffffffffffffffffffffffffffffff16837f1d3cf81927da212fdd71794079b5b6a4915c8e82ae6486396a4a635d7b641d7260405160405180910390a3505050565b6106dc81610a10565b50565b5f81905067016345785d8a0000811461072d576040517f08c379a000000000000000000000000000000000000000000000000000000000815260040161072490611309565b60405180910390fd5b80341461076f576040517f08c379a000000000000000000000000000000000000000000000000000000000815260040161076690611371565b60405180910390fd5b5f600480549050111561089b575f60046001600480549050610791919061138f565b815481106107a2576107a16113c2565b5b905f5260205f200154905060048054806107bf576107be6113ef565b5b600190038181905f5260205f20015f905590553360025f8381526020019081526020015f206001015f6101000a81548173ffffffffffffffffffffffffffffffffffffffff021916908373ffffffffffffffffffffffffffffffffffffffff160217905550807fd5823cd294189b4914ca85b168abcdb1437a06d7ad1309ff8b4d566d637b70d460405160405180910390a23373ffffffffffffffffffffffffffffffffffffffff16817f87969bc7faf902221a147b95ceba76e011c5efb0339a0a8ee7a2bb82d9cfbbd660405160405180910390a3506109ec565b5f60055f8154809291906108ae906110e7565b9190505590503360025f8381526020019081526020015f205f015f6101000a81548173ffffffffffffffffffffffffffffffffffffffff021916908373ffffffffffffffffffffffffffffffffffffffff1602179055508260025f8381526020019081526020015f20600401819055505f60025f8381526020019081526020015f206005015f6101000a81548160ff0219169083151502179055505f60025f8381526020019081526020015f2060050160016101000a81548160ff021916908315150217905550600481908060018154018082558091505060019003905f5260205f20015f90919091909150553373ffffffffffffffffffffffffffffffffffffffff16817f1a359d6c577b59d148bb1a420ef38ac4a389b04a5886d9de3fb3259c79e2576b5f6040516109e29190611148565b60405180910390a3505b5050565b600481815481106109ff575f80fd5b905f5260205f20015f915090505481565b5f60025f8381526020019081526020015f2090508060050160019054906101000a900460ff1615610a76576040517f08c379a0000000000000000000000000000000000000000000000000000000008152600401610a6d90611466565b60405180910390fd5b5f816002015414158015610a8e57505f816003015414155b610acd576040517f08c379a0000000000000000000000000000000000000000000000000000000008152600401610ac4906114ce565b60405180910390fd5b5f6003826003015460038460020154610ae691906114ec565b610af0919061138f565b610afa919061154c565b905060018260050160016101000a81548160ff0219169083151502179055505f825f015f9054906101000a900473ffffffffffffffffffffffffffffffffffffffff1690505f836001015f9054906101000a900473ffffffffffffffffffffffffffffffffffffffff1690505f5f905060018403610c31578290508273ffffffffffffffffffffffffffffffffffffffff166108fc67025bf6196bd1000090811502906040515f60405180830381858888f19350505050158015610bc0573d5f5f3e3d5ffd5b505f5f9054906101000a900473ffffffffffffffffffffffffffffffffffffffff1673ffffffffffffffffffffffffffffffffffffffff166108fc666a94d74f43000090811502906040515f60405180830381858888f19350505050158015610c2b573d5f5f3e3d5ffd5b50610d92565b60028403610cf8578190508173ffffffffffffffffffffffffffffffffffffffff166108fc67025bf6196bd1000090811502906040515f60405180830381858888f19350505050158015610c87573d5f5f3e3d5ffd5b505f5f9054906101000a900473ffffffffffffffffffffffffffffffffffffffff1673ffffffffffffffffffffffffffffffffffffffff166108fc666a94d74f43000090811502906040515f60405180830381858888f19350505050158015610cf2573d5f5f3e3d5ffd5b50610d91565b8273ffffffffffffffffffffffffffffffffffffffff166108fc67016345785d8a000090811502906040515f60405180830381858888f19350505050158015610d43573d5f5f3e3d5ffd5b508173ffffffffffffffffffffffffffffffffffffffff166108fc67016345785d8a000090811502906040515f60405180830381858888f19350505050158015610d8f573d5f5f3e3d5ffd5b505b5b857fed745e61999ea4f92d153523120103236a773a136c3c411f30f266959c81119082604051610dc29190610f6b565b60405180910390a2505050505050565b5f5ffd5b5f73ffffffffffffffffffffffffffffffffffffffff82169050919050565b5f610dff82610dd6565b9050919050565b610e0f81610df5565b8114610e19575f5ffd5b50565b5f81359050610e2a81610e06565b92915050565b5f60208284031215610e4557610e44610dd2565b5b5f610e5284828501610e1c565b91505092915050565b5f819050919050565b610e6d81610e5b565b82525050565b5f602082019050610e865f830184610e64565b92915050565b610e9581610e5b565b8114610e9f575f5ffd5b50565b5f81359050610eb081610e8c565b92915050565b5f5f60408385031215610ecc57610ecb610dd2565b5b5f610ed985828601610ea2565b9250506020610eea85828601610ea2565b9150509250929050565b610efd81610e5b565b8114610f07575f5ffd5b50565b5f81359050610f1881610ef4565b92915050565b5f5f60408385031215610f3457610f33610dd2565b5b5f610f4185828601610f0a565b9250506020610f5285828601610ea2565b9150509250929050565b610f6581610df5565b82525050565b5f602082019050610f7e5f830184610f5c565b92915050565b5f60208284031215610f9957610f98610dd2565b5b5f610fa684828501610f0a565b91505092915050565b5f60208284031215610fc457610fc3610dd2565b5b5f610fd184828501610ea2565b91505092915050565b5f82825260208201905092915050565b7f4f6e6c79206f776e6572000000000000000000000000000000000000000000005f82015250565b5f61101e600a83610fda565b915061102982610fea565b602082019050919050565b5f6020820190508181035f83015261104b81611012565b9050919050565b7f5761676572206d757374206d61746368206d73672e76616c75650000000000005f82015250565b5f611086601a83610fda565b915061109182611052565b602082019050919050565b5f6020820190508181035f8301526110b38161107a565b9050919050565b7f4e487b71000000000000000000000000000000000000000000000000000000005f52601160045260245ffd5b5f6110f182610e5b565b91507fffffffffffffffffffffffffffffffffffffffffffffffffffffffffffffffff8203611123576111226110ba565b5b600182019050919050565b5f8115159050919050565b6111428161112e565b82525050565b5f60208201905061115b5f830184611139565b92915050565b7f4e6f74206120707269766174652067616d6500000000000000000000000000005f82015250565b5f611195601283610fda565b91506111a082611161565b602082019050919050565b5f6020820190508181035f8301526111c281611189565b9050919050565b7f4475656c20616c7265616479207265736f6c76656400000000000000000000005f82015250565b5f6111fd601583610fda565b9150611208826111c9565b602082019050919050565b5f6020820190508181035f83015261122a816111f1565b9050919050565b7f4475656c20697320636f6d706c657465000000000000000000000000000000005f82015250565b5f611265601083610fda565b915061127082611231565b602082019050919050565b5f6020820190508181035f83015261129281611259565b9050919050565b7f517569636b204d617463682072657175697265732065786163746c7920302e315f8201527f2053454953000000000000000000000000000000000000000000000000000000602082015250565b5f6112f3602583610fda565b91506112fe82611299565b604082019050919050565b5f6020820190508181035f830152611320816112e7565b9050919050565b7f496e636f72726563742057616765722053656e740000000000000000000000005f82015250565b5f61135b601483610fda565b915061136682611327565b602082019050919050565b5f6020820190508181035f8301526113888161134f565b9050919050565b5f61139982610e5b565b91506113a483610e5b565b92508282039050818111156113bc576113bb6110ba565b5b92915050565b7f4e487b71000000000000000000000000000000000000000000000000000000005f52603260045260245ffd5b7f4e487b71000000000000000000000000000000000000000000000000000000005f52603160045260245ffd5b7f416c7265616479207265736f6c766564000000000000000000000000000000005f82015250565b5f611450601083610fda565b915061145b8261141c565b602082019050919050565b5f6020820190508181035f83015261147d81611444565b9050919050565b7f4d6f766573206e6f7420726561647900000000000000000000000000000000005f82015250565b5f6114b8600f83610fda565b91506114c382611484565b602082019050919050565b5f6020820190508181035f8301526114e5816114ac565b9050919050565b5f6114f682610e5b565b915061150183610e5b565b9250828201905080821115611519576115186110ba565b5b92915050565b7f4e487b71000000000000000000000000000000000000000000000000000000005f52601260045260245ffd5b5f61155682610e5b565b915061156183610e5b565b9250826115715761157061151f565b5b82820690509291505056fea26469706673582212201fc20e70359f2057e7308dc8ba65ea5496686d7b5655c701081fa58bf277bf0e64736f6c63430008220033","linkReferences":{}},"methodIdentifiers":{"commitMove(uint256,uint256)":"988f4043","createPrivateGame(uint256,uint256)":"6b47db7e","joinPrivateGame(uint256,uint256)":"7b21849a","joinRandomQueue(uint256)":"ce2ff57e","nextDuelId()":"549ec614","owner()":"8da5cb5b","randomQueue(uint256)":"d5ab18d3","resolveDuel(uint256)":"cdd69a12","setOwner(address)":"13af4035"},"id":16}