{"abi":[{"type":"function","name":"commitMove","inputs":[{"name":"duelId","type":"uint256","internalType":"uint256"},{"name":"_move","type":"uint256","internalType":"suint"}],"outputs":[],"stateMutability":"nonpayable"},{"type":"function","name":"createPrivateGame","inputs":[{"name":"_code","type":"uint256","internalType":"suint"},{"name":"_wager","type":"uint256","internalType":"suint"}],"outputs":[],"stateMutability":"nonpayable"},{"type":"function","name":"deposit","inputs":[],"outputs":[],"stateMutability":"payable"},{"type":"function","name":"getShieldedBalance","inputs":[{"name":"user","type":"address","internalType":"address"}],"outputs":[{"name":"","type":"uint256","internalType":"suint"}],"stateMutability":"view"},{"type":"function","name":"joinPrivateGame","inputs":[{"name":"duelId","type":"uint256","internalType":"uint256"},{"name":"_attemptCode","type":"uint256","internalType":"suint"}],"outputs":[],"stateMutability":"nonpayable"},{"type":"function","name":"joinRandomQueue","inputs":[{"name":"_wager","type":"uint256","internalType":"suint"}],"outputs":[],"stateMutability":"nonpayable"},{"type":"function","name":"nextDuelId","inputs":[],"outputs":[{"name":"","type":"uint256","internalType":"uint256"}],"stateMutability":"view"},{"type":"function","name":"randomQueue","inputs":[{"name":"","type":"uint256","internalType":"uint256"}],"outputs":[{"name":"","type":"uint256","internalType":"uint256"}],"stateMutability":"view"},{"type":"function","name":"resolveDuel","inputs":[{"name":"duelId","type":"uint256","internalType":"uint256"}],"outputs":[],"stateMutability":"nonpayable"},{"type":"event","name":"DuelCreated","inputs":[{"name":"duelId","type":"uint256","indexed":true,"internalType":"uint256"},{"name":"isPrivate","type":"bool","indexed":false,"internalType":"bool"},{"name":"creator","type":"address","indexed":true,"internalType":"address"}],"anonymous":false},{"type":"event","name":"DuelResolved","inputs":[{"name":"duelId","type":"uint256","indexed":true,"internalType":"uint256"},{"name":"winner","type":"address","indexed":false,"internalType":"address"}],"anonymous":false},{"type":"event","name":"MatchFound","inputs":[{"name":"duelId","type":"uint256","indexed":true,"internalType":"uint256"}],"anonymous":false},{"type":"event","name":"MoveCommitted","inputs":[{"name":"duelId","type":"uint256","indexed":true,"internalType":"uint256"},{"name":"player","type":"address","indexed":true,"internalType":"address"}],"anonymous":false},{"type":"event","name":"PlayerJoined","inputs":[{"name":"duelId","type":"uint256","indexed":true,"internalType":"uint256"},{"name":"player","type":"address","indexed":true,"internalType":"address"}],"anonymous":false}],"bytecode":{"object":"0x6080604052348015600e575f5ffd5b506118418061001c5f395ff3fe608060405260043610610085575f3560e01c8063c902df9811610058578063c902df981461012b578063cdd69a1214610167578063ce2ff57e1461018f578063d0e30db0146101b7578063d5ab18d3146101c157610085565b8063549ec614146100895780636b47db7e146100b35780637b21849a146100db578063988f404314610103575b5f5ffd5b348015610094575f5ffd5b5061009d6101fd565b6040516100aa9190611144565b60405180910390f35b3480156100be575f5ffd5b506100d960048036038101906100d4919061118b565b610203565b005b3480156100e6575f5ffd5b5061010160048036038101906100fc91906111f3565b610457565b005b34801561010e575f5ffd5b50610129600480360381019061012491906111f3565b6106cc565b005b348015610136575f5ffd5b50610151600480360381019061014c919061128b565b6107c9565b60405161015e91906112ef565b60405180910390f35b348015610172575f5ffd5b5061018d60048036038101906101889190611308565b61087d565b005b34801561019a575f5ffd5b506101b560048036038101906101b09190611333565b610cec565b005b6101bf61107b565b005b3480156101cc575f5ffd5b506101e760048036038101906101e29190611308565b61110c565b6040516101f49190611144565b60405180910390f35b60055481565b5f8190508060035f3373ffffffffffffffffffffffffffffffffffffffff1673ffffffffffffffffffffffffffffffffffffffff1681526020019081526020015f20541015610287576040517f08c379a000000000000000000000000000000000000000000000000000000000815260040161027e906113b8565b60405180910390fd5b8060035f3373ffffffffffffffffffffffffffffffffffffffff1673ffffffffffffffffffffffffffffffffffffffff1681526020019081526020015f20546102d09190611403565b60035f3373ffffffffffffffffffffffffffffffffffffffff1673ffffffffffffffffffffffffffffffffffffffff1681526020019081526020015f20819055505f60055f81548092919061032490611436565b9190505590503360015f8381526020019081526020015f205f015f6101000a81548173ffffffffffffffffffffffffffffffffffffffff021916908373ffffffffffffffffffffffffffffffffffffffff1602179055508260015f8381526020019081526020015f20600401819055506001805f8381526020019081526020015f206005015f6101000a81548160ff0219169083151502179055505f60015f8381526020019081526020015f2060050160016101000a81548160ff0219169083151502179055508360025f8381526020019081526020015f20819055503373ffffffffffffffffffffffffffffffffffffffff16817f1a359d6c577b59d148bb1a420ef38ac4a389b04a5886d9de3fb3259c79e2576b60016040516104499190611497565b60405180910390a350505050565b5f60015f8481526020019081526020015f209050806005015f9054906101000a900460ff166104bb576040517f08c379a00000000000000000000000000000000000000000000000000000000081526004016104b2906114fa565b60405180910390fd5b8060050160019054906101000a900460ff161561050d576040517f08c379a000000000000000000000000000000000000000000000000000000000815260040161050490611562565b60405180910390fd5b5f816004015490508060035f3373ffffffffffffffffffffffffffffffffffffffff1673ffffffffffffffffffffffffffffffffffffffff1681526020019081526020015f20541015610595576040517f08c379a000000000000000000000000000000000000000000000000000000000815260040161058c906113b8565b60405180910390fd5b5f8360025f8781526020019081526020015f20546105b39190611403565b90508160035f3373ffffffffffffffffffffffffffffffffffffffff1673ffffffffffffffffffffffffffffffffffffffff1681526020019081526020015f20546105fe9190611403565b60035f3373ffffffffffffffffffffffffffffffffffffffff1673ffffffffffffffffffffffffffffffffffffffff1681526020019081526020015f208190555033836001015f6101000a81548173ffffffffffffffffffffffffffffffffffffffff021916908373ffffffffffffffffffffffffffffffffffffffff1602179055503373ffffffffffffffffffffffffffffffffffffffff16857f87969bc7faf902221a147b95ceba76e011c5efb0339a0a8ee7a2bb82d9cfbbd660405160405180910390a35050505050565b60015f8381526020019081526020015f2060050160019054906101000a900460ff161561072e576040517f08c379a0000000000000000000000000000000000000000000000000000000008152600401610725906115ca565b60405180910390fd5b5f60015f8481526020019081526020015f206002015403610767578060015f8481526020019081526020015f2060020181905550610781565b8060015f8481526020019081526020015f20600301819055505b3373ffffffffffffffffffffffffffffffffffffffff16827f1d3cf81927da212fdd71794079b5b6a4915c8e82ae6486396a4a635d7b641d7260405160405180910390a35050565b5f8173ffffffffffffffffffffffffffffffffffffffff163373ffffffffffffffffffffffffffffffffffffffff1614610838576040517f08c379a000000000000000000000000000000000000000000000000000000000815260040161082f90611632565b60405180910390fd5b60035f8373ffffffffffffffffffffffffffffffffffffffff1673ffffffffffffffffffffffffffffffffffffffff1681526020019081526020015f20549050919050565b5f60015f8381526020019081526020015f2090508060050160019054906101000a900460ff16156108e3576040517f08c379a00000000000000000000000000000000000000000000000000000000081526004016108da9061169a565b60405180910390fd5b5f60038260030154600384600201546108fc91906116b8565b6109069190611403565b6109109190611718565b905060018260050160016101000a81548160ff02191690831515021790555060018103610a1a57600282600401546109489190611748565b60035f845f015f9054906101000a900473ffffffffffffffffffffffffffffffffffffffff1673ffffffffffffffffffffffffffffffffffffffff1673ffffffffffffffffffffffffffffffffffffffff1681526020019081526020015f20546109b291906116b8565b60035f845f015f9054906101000a900473ffffffffffffffffffffffffffffffffffffffff1673ffffffffffffffffffffffffffffffffffffffff1673ffffffffffffffffffffffffffffffffffffffff1681526020019081526020015f2081905550610caf565b60028103610b075760028260040154610a339190611748565b60035f846001015f9054906101000a900473ffffffffffffffffffffffffffffffffffffffff1673ffffffffffffffffffffffffffffffffffffffff1673ffffffffffffffffffffffffffffffffffffffff1681526020019081526020015f2054610a9e91906116b8565b60035f846001015f9054906101000a900473ffffffffffffffffffffffffffffffffffffffff1673ffffffffffffffffffffffffffffffffffffffff1673ffffffffffffffffffffffffffffffffffffffff1681526020019081526020015f2081905550610cae565b816004015460035f845f015f9054906101000a900473ffffffffffffffffffffffffffffffffffffffff1673ffffffffffffffffffffffffffffffffffffffff1673ffffffffffffffffffffffffffffffffffffffff1681526020019081526020015f2054610b7691906116b8565b60035f845f015f9054906101000a900473ffffffffffffffffffffffffffffffffffffffff1673ffffffffffffffffffffffffffffffffffffffff1673ffffffffffffffffffffffffffffffffffffffff1681526020019081526020015f2081905550816004015460035f846001015f9054906101000a900473ffffffffffffffffffffffffffffffffffffffff1673ffffffffffffffffffffffffffffffffffffffff1673ffffffffffffffffffffffffffffffffffffffff1681526020019081526020015f2054610c4991906116b8565b60035f846001015f9054906101000a900473ffffffffffffffffffffffffffffffffffffffff1673ffffffffffffffffffffffffffffffffffffffff1673ffffffffffffffffffffffffffffffffffffffff1681526020019081526020015f20819055505b5b827fed745e61999ea4f92d153523120103236a773a136c3c411f30f266959c81119033604051610cdf9190611798565b60405180910390a2505050565b5f8190508060035f3373ffffffffffffffffffffffffffffffffffffffff1673ffffffffffffffffffffffffffffffffffffffff1681526020019081526020015f20541015610d70576040517f08c379a0000000000000000000000000000000000000000000000000000000008152600401610d67906113b8565b60405180910390fd5b8060035f3373ffffffffffffffffffffffffffffffffffffffff1673ffffffffffffffffffffffffffffffffffffffff1681526020019081526020015f2054610db99190611403565b60035f3373ffffffffffffffffffffffffffffffffffffffff1673ffffffffffffffffffffffffffffffffffffffff1681526020019081526020015f20819055505f6004805490501115610f26575f60046001600480549050610e1c9190611403565b81548110610e2d57610e2c6117b1565b5b905f5260205f20015490506004805480610e4a57610e496117de565b5b600190038181905f5260205f20015f905590553360015f8381526020019081526020015f206001015f6101000a81548173ffffffffffffffffffffffffffffffffffffffff021916908373ffffffffffffffffffffffffffffffffffffffff160217905550807fd5823cd294189b4914ca85b168abcdb1437a06d7ad1309ff8b4d566d637b70d460405160405180910390a23373ffffffffffffffffffffffffffffffffffffffff16817f87969bc7faf902221a147b95ceba76e011c5efb0339a0a8ee7a2bb82d9cfbbd660405160405180910390a350611077565b5f60055f815480929190610f3990611436565b9190505590503360015f8381526020019081526020015f205f015f6101000a81548173ffffffffffffffffffffffffffffffffffffffff021916908373ffffffffffffffffffffffffffffffffffffffff1602179055508260015f8381526020019081526020015f20600401819055505f60015f8381526020019081526020015f206005015f6101000a81548160ff0219169083151502179055505f60015f8381526020019081526020015f2060050160016101000a81548160ff021916908315150217905550600481908060018154018082558091505060019003905f5260205f20015f90919091909150553373ffffffffffffffffffffffffffffffffffffffff16817f1a359d6c577b59d148bb1a420ef38ac4a389b04a5886d9de3fb3259c79e2576b5f60405161106d9190611497565b60405180910390a3505b5050565b5f60035f3373ffffffffffffffffffffffffffffffffffffffff1673ffffffffffffffffffffffffffffffffffffffff1681526020019081526020015f2054905034816110c891906116b8565b60035f3373ffffffffffffffffffffffffffffffffffffffff1673ffffffffffffffffffffffffffffffffffffffff1681526020019081526020015f208190555050565b6004818154811061111b575f80fd5b905f5260205f20015f915090505481565b5f819050919050565b61113e8161112c565b82525050565b5f6020820190506111575f830184611135565b92915050565b5f5ffd5b61116a8161112c565b8114611174575f5ffd5b50565b5f8135905061118581611161565b92915050565b5f5f604083850312156111a1576111a061115d565b5b5f6111ae85828601611177565b92505060206111bf85828601611177565b9150509250929050565b6111d28161112c565b81146111dc575f5ffd5b50565b5f813590506111ed816111c9565b92915050565b5f5f604083850312156112095761120861115d565b5b5f611216858286016111df565b925050602061122785828601611177565b9150509250929050565b5f73ffffffffffffffffffffffffffffffffffffffff82169050919050565b5f61125a82611231565b9050919050565b61126a81611250565b8114611274575f5ffd5b50565b5f8135905061128581611261565b92915050565b5f602082840312156112a05761129f61115d565b5b5f6112ad84828501611277565b91505092915050565b5f819050919050565b5f6112d96112d46112cf8461112c565b6112b6565b61112c565b9050919050565b6112e9816112bf565b82525050565b5f6020820190506113025f8301846112e0565b92915050565b5f6020828403121561131d5761131c61115d565b5b5f61132a848285016111df565b91505092915050565b5f602082840312156113485761134761115d565b5b5f61135584828501611177565b91505092915050565b5f82825260208201905092915050565b7f496e73756666696369656e7420536869656c6465642042616c616e63650000005f82015250565b5f6113a2601d8361135e565b91506113ad8261136e565b602082019050919050565b5f6020820190508181035f8301526113cf81611396565b9050919050565b7f4e487b71000000000000000000000000000000000000000000000000000000005f52601160045260245ffd5b5f61140d8261112c565b91506114188361112c565b92508282039050818111156114305761142f6113d6565b5b92915050565b5f6114408261112c565b91507fffffffffffffffffffffffffffffffffffffffffffffffffffffffffffffffff8203611472576114716113d6565b5b600182019050919050565b5f8115159050919050565b6114918161147d565b82525050565b5f6020820190506114aa5f830184611488565b92915050565b7f4e6f74206120707269766174652067616d6500000000000000000000000000005f82015250565b5f6114e460128361135e565b91506114ef826114b0565b602082019050919050565b5f6020820190508181035f830152611511816114d8565b9050919050565b7f4475656c20616c7265616479207265736f6c76656400000000000000000000005f82015250565b5f61154c60158361135e565b915061155782611518565b602082019050919050565b5f6020820190508181035f83015261157981611540565b9050919050565b7f4475656c20697320636f6d706c657465000000000000000000000000000000005f82015250565b5f6115b460108361135e565b91506115bf82611580565b602082019050919050565b5f6020820190508181035f8301526115e1816115a8565b9050919050565b7f556e617574686f72697a6564205369676e6564205265616400000000000000005f82015250565b5f61161c60188361135e565b9150611627826115e8565b602082019050919050565b5f6020820190508181035f83015261164981611610565b9050919050565b7f416c7265616479207265736f6c766564000000000000000000000000000000005f82015250565b5f61168460108361135e565b915061168f82611650565b602082019050919050565b5f6020820190508181035f8301526116b181611678565b9050919050565b5f6116c28261112c565b91506116cd8361112c565b92508282019050808211156116e5576116e46113d6565b5b92915050565b7f4e487b71000000000000000000000000000000000000000000000000000000005f52601260045260245ffd5b5f6117228261112c565b915061172d8361112c565b92508261173d5761173c6116eb565b5b828206905092915050565b5f6117528261112c565b915061175d8361112c565b925082820261176b8161112c565b91508282048414831517611782576117816113d6565b5b5092915050565b61179281611250565b82525050565b5f6020820190506117ab5f830184611789565b92915050565b7f4e487b71000000000000000000000000000000000000000000000000000000005f52603260045260245ffd5b7f4e487b71000000000000000000000000000000000000000000000000000000005f52603160045260245ffdfea26469706673582212209e86159ada34b099b3dfefdd8bc14fa518e3981e8dbb4a263f7f6419c1b4495b64736f6c63430008220033","linkReferences":{}},"methodIdentifiers":{"commitMove(uint256,uint256)":"988f4043","createPrivateGame(uint256,uint256)":"6b47db7e","deposit()":"d0e30db0","getShieldedBalance(address)":"c902df98","joinPrivateGame(uint256,uint256)":"7b21849a","joinRandomQueue(uint256)":"ce2ff57e","nextDuelId()":"549ec614","randomQueue(uint256)":"d5ab18d3","resolveDuel(uint256)":"cdd69a12"},"id":16}