{"abi":[{"type":"function","name":"commitMove","inputs":[{"name":"duelId","type":"uint256","internalType":"uint256"},{"name":"_move","type":"uint256","internalType":"suint"}],"outputs":[],"stateMutability":"nonpayable"},{"type":"function","name":"createPrivateGame","inputs":[{"name":"_code","type":"uint256","internalType":"suint"},{"name":"_wager","type":"uint256","internalType":"suint"}],"outputs":[],"stateMutability":"payable"},{"type":"function","name":"joinPrivateGame","inputs":[{"name":"duelId","type":"uint256","internalType":"uint256"},{"name":"_attemptCode","type":"uint256","internalType":"suint"}],"outputs":[],"stateMutability":"payable"},{"type":"function","name":"joinRandomQueue","inputs":[{"name":"_wager","type":"uint256","internalType":"suint"}],"outputs":[],"stateMutability":"payable"},{"type":"function","name":"nextDuelId","inputs":[],"outputs":[{"name":"","type":"uint256","internalType":"uint256"}],"stateMutability":"view"},{"type":"function","name":"randomQueue","inputs":[{"name":"","type":"uint256","internalType":"uint256"}],"outputs":[{"name":"","type":"uint256","internalType":"uint256"}],"stateMutability":"view"},{"type":"function","name":"resolveDuel","inputs":[{"name":"duelId","type":"uint256","internalType":"uint256"}],"outputs":[],"stateMutability":"nonpayable"},{"type":"event","name":"DuelCreated","inputs":[{"name":"duelId","type":"uint256","indexed":true,"internalType":"uint256"},{"name":"isPrivate","type":"bool","indexed":false,"internalType":"bool"},{"name":"creator","type":"address","indexed":true,"internalType":"address"}],"anonymous":false},{"type":"event","name":"DuelResolved","inputs":[{"name":"duelId","type":"uint256","indexed":true,"internalType":"uint256"},{"name":"winner","type":"address","indexed":false,"internalType":"address"}],"anonymous":false},{"type":"event","name":"MatchFound","inputs":[{"name":"duelId","type":"uint256","indexed":true,"internalType":"uint256"}],"anonymous":false},{"type":"event","name":"MoveCommitted","inputs":[{"name":"duelId","type":"uint256","indexed":true,"internalType":"uint256"},{"name":"player","type":"address","indexed":true,"internalType":"address"}],"anonymous":false},{"type":"event","name":"PlayerJoined","inputs":[{"name":"duelId","type":"uint256","indexed":true,"internalType":"uint256"},{"name":"player","type":"address","indexed":true,"internalType":"address"}],"anonymous":false}],"bytecode":{"object":"0x6080604052348015600e575f5ffd5b506112b18061001c5f395ff3fe60806040526004361061006f575f3560e01c8063988f40431161004d578063988f4043146100d5578063cdd69a12146100fd578063ce2ff57e14610125578063d5ab18d3146101415761006f565b8063549ec614146100735780636b47db7e1461009d5780637b21849a146100b9575b5f5ffd5b34801561007e575f5ffd5b5061008761017d565b6040516100949190610b9d565b60405180910390f35b6100b760048036038101906100b29190610be4565b610183565b005b6100d360048036038101906100ce9190610c4c565b61030f565b005b3480156100e0575f5ffd5b506100fb60048036038101906100f69190610c4c565b6104bc565b005b348015610108575f5ffd5b50610123600480360381019061011e9190610c8a565b6105b9565b005b61013f600480360381019061013a9190610cb5565b610854565b005b34801561014c575f5ffd5b5061016760048036038101906101629190610c8a565b610b65565b6040516101749190610b9d565b60405180910390f35b60045481565b5f8190508034146101c9576040517f08c379a00000000000000000000000000000000000000000000000000000000081526004016101c090610d3a565b60405180910390fd5b5f60045f8154809291906101dc90610d85565b9190505590503360015f8381526020019081526020015f205f015f6101000a81548173ffffffffffffffffffffffffffffffffffffffff021916908373ffffffffffffffffffffffffffffffffffffffff1602179055508260015f8381526020019081526020015f20600401819055506001805f8381526020019081526020015f206005015f6101000a81548160ff0219169083151502179055505f60015f8381526020019081526020015f2060050160016101000a81548160ff0219169083151502179055508360025f8381526020019081526020015f20819055503373ffffffffffffffffffffffffffffffffffffffff16817f1a359d6c577b59d148bb1a420ef38ac4a389b04a5886d9de3fb3259c79e2576b60016040516103019190610de6565b60405180910390a350505050565b5f60015f8481526020019081526020015f209050806005015f9054906101000a900460ff16610373576040517f08c379a000000000000000000000000000000000000000000000000000000000815260040161036a90610e49565b60405180910390fd5b8060050160019054906101000a900460ff16156103c5576040517f08c379a00000000000000000000000000000000000000000000000000000000081526004016103bc90610eb1565b60405180910390fd5b5f8160040154905080341461040f576040517f08c379a000000000000000000000000000000000000000000000000000000000815260040161040690610d3a565b60405180910390fd5b5f8360025f8781526020019081526020015f205461042d9190610ecf565b905033836001015f6101000a81548173ffffffffffffffffffffffffffffffffffffffff021916908373ffffffffffffffffffffffffffffffffffffffff1602179055503373ffffffffffffffffffffffffffffffffffffffff16857f87969bc7faf902221a147b95ceba76e011c5efb0339a0a8ee7a2bb82d9cfbbd660405160405180910390a35050505050565b60015f8381526020019081526020015f2060050160019054906101000a900460ff161561051e576040517f08c379a000000000000000000000000000000000000000000000000000000000815260040161051590610f4c565b60405180910390fd5b5f60015f8481526020019081526020015f206002015403610557578060015f8481526020019081526020015f2060020181905550610571565b8060015f8481526020019081526020015f20600301819055505b3373ffffffffffffffffffffffffffffffffffffffff16827f1d3cf81927da212fdd71794079b5b6a4915c8e82ae6486396a4a635d7b641d7260405160405180910390a35050565b5f60015f8381526020019081526020015f2090508060050160019054906101000a900460ff161561061f576040517f08c379a000000000000000000000000000000000000000000000000000000000815260040161061690610fb4565b60405180910390fd5b5f60038260030154600384600201546106389190610fd2565b6106429190610ecf565b61064c9190611032565b905060018260050160016101000a81548160ff0219169083151502179055505f6002836004015461067d9190611062565b90505f835f015f9054906101000a900473ffffffffffffffffffffffffffffffffffffffff1690505f846001015f9054906101000a900473ffffffffffffffffffffffffffffffffffffffff1690505f5f905060018503610724578290508273ffffffffffffffffffffffffffffffffffffffff166108fc8590811502906040515f60405180830381858888f1935050505015801561071e573d5f5f3e3d5ffd5b50610813565b60028503610778578190508173ffffffffffffffffffffffffffffffffffffffff166108fc8590811502906040515f60405180830381858888f19350505050158015610772573d5f5f3e3d5ffd5b50610812565b5f60028561078691906110a3565b90508373ffffffffffffffffffffffffffffffffffffffff166108fc8290811502906040515f60405180830381858888f193505050501580156107cb573d5f5f3e3d5ffd5b508273ffffffffffffffffffffffffffffffffffffffff166108fc8290811502906040515f60405180830381858888f1935050505015801561080f573d5f5f3e3d5ffd5b50505b5b867fed745e61999ea4f92d153523120103236a773a136c3c411f30f266959c811190826040516108439190611112565b60405180910390a250505050505050565b5f81905067016345785d8a000081146108a2576040517f08c379a00000000000000000000000000000000000000000000000000000000081526004016108999061119b565b60405180910390fd5b8034146108e4576040517f08c379a00000000000000000000000000000000000000000000000000000000081526004016108db90611203565b60405180910390fd5b5f6003805490501115610a10575f600360016003805490506109069190610ecf565b8154811061091757610916611221565b5b905f5260205f200154905060038054806109345761093361124e565b5b600190038181905f5260205f20015f905590553360015f8381526020019081526020015f206001015f6101000a81548173ffffffffffffffffffffffffffffffffffffffff021916908373ffffffffffffffffffffffffffffffffffffffff160217905550807fd5823cd294189b4914ca85b168abcdb1437a06d7ad1309ff8b4d566d637b70d460405160405180910390a23373ffffffffffffffffffffffffffffffffffffffff16817f87969bc7faf902221a147b95ceba76e011c5efb0339a0a8ee7a2bb82d9cfbbd660405160405180910390a350610b61565b5f60045f815480929190610a2390610d85565b9190505590503360015f8381526020019081526020015f205f015f6101000a81548173ffffffffffffffffffffffffffffffffffffffff021916908373ffffffffffffffffffffffffffffffffffffffff1602179055508260015f8381526020019081526020015f20600401819055505f60015f8381526020019081526020015f206005015f6101000a81548160ff0219169083151502179055505f60015f8381526020019081526020015f2060050160016101000a81548160ff021916908315150217905550600381908060018154018082558091505060019003905f5260205f20015f90919091909150553373ffffffffffffffffffffffffffffffffffffffff16817f1a359d6c577b59d148bb1a420ef38ac4a389b04a5886d9de3fb3259c79e2576b5f604051610b579190610de6565b60405180910390a3505b5050565b60038181548110610b74575f80fd5b905f5260205f20015f915090505481565b5f819050919050565b610b9781610b85565b82525050565b5f602082019050610bb05f830184610b8e565b92915050565b5f5ffd5b610bc381610b85565b8114610bcd575f5ffd5b50565b5f81359050610bde81610bba565b92915050565b5f5f60408385031215610bfa57610bf9610bb6565b5b5f610c0785828601610bd0565b9250506020610c1885828601610bd0565b9150509250929050565b610c2b81610b85565b8114610c35575f5ffd5b50565b5f81359050610c4681610c22565b92915050565b5f5f60408385031215610c6257610c61610bb6565b5b5f610c6f85828601610c38565b9250506020610c8085828601610bd0565b9150509250929050565b5f60208284031215610c9f57610c9e610bb6565b5b5f610cac84828501610c38565b91505092915050565b5f60208284031215610cca57610cc9610bb6565b5b5f610cd784828501610bd0565b91505092915050565b5f82825260208201905092915050565b7f5761676572206d757374206d61746368206d73672e76616c75650000000000005f82015250565b5f610d24601a83610ce0565b9150610d2f82610cf0565b602082019050919050565b5f6020820190508181035f830152610d5181610d18565b9050919050565b7f4e487b71000000000000000000000000000000000000000000000000000000005f52601160045260245ffd5b5f610d8f82610b85565b91507fffffffffffffffffffffffffffffffffffffffffffffffffffffffffffffffff8203610dc157610dc0610d58565b5b600182019050919050565b5f8115159050919050565b610de081610dcc565b82525050565b5f602082019050610df95f830184610dd7565b92915050565b7f4e6f74206120707269766174652067616d6500000000000000000000000000005f82015250565b5f610e33601283610ce0565b9150610e3e82610dff565b602082019050919050565b5f6020820190508181035f830152610e6081610e27565b9050919050565b7f4475656c20616c7265616479207265736f6c76656400000000000000000000005f82015250565b5f610e9b601583610ce0565b9150610ea682610e67565b602082019050919050565b5f6020820190508181035f830152610ec881610e8f565b9050919050565b5f610ed982610b85565b9150610ee483610b85565b9250828203905081811115610efc57610efb610d58565b5b92915050565b7f4475656c20697320636f6d706c657465000000000000000000000000000000005f82015250565b5f610f36601083610ce0565b9150610f4182610f02565b602082019050919050565b5f6020820190508181035f830152610f6381610f2a565b9050919050565b7f416c7265616479207265736f6c766564000000000000000000000000000000005f82015250565b5f610f9e601083610ce0565b9150610fa982610f6a565b602082019050919050565b5f6020820190508181035f830152610fcb81610f92565b9050919050565b5f610fdc82610b85565b9150610fe783610b85565b9250828201905080821115610fff57610ffe610d58565b5b92915050565b7f4e487b71000000000000000000000000000000000000000000000000000000005f52601260045260245ffd5b5f61103c82610b85565b915061104783610b85565b92508261105757611056611005565b5b828206905092915050565b5f61106c82610b85565b915061107783610b85565b925082820261108581610b85565b9150828204841483151761109c5761109b610d58565b5b5092915050565b5f6110ad82610b85565b91506110b883610b85565b9250826110c8576110c7611005565b5b828204905092915050565b5f73ffffffffffffffffffffffffffffffffffffffff82169050919050565b5f6110fc826110d3565b9050919050565b61110c816110f2565b82525050565b5f6020820190506111255f830184611103565b92915050565b7f517569636b204d617463682072657175697265732065786163746c7920302e315f8201527f2053454953000000000000000000000000000000000000000000000000000000602082015250565b5f611185602583610ce0565b91506111908261112b565b604082019050919050565b5f6020820190508181035f8301526111b281611179565b9050919050565b7f496e636f72726563742057616765722053656e740000000000000000000000005f82015250565b5f6111ed601483610ce0565b91506111f8826111b9565b602082019050919050565b5f6020820190508181035f83015261121a816111e1565b9050919050565b7f4e487b71000000000000000000000000000000000000000000000000000000005f52603260045260245ffd5b7f4e487b71000000000000000000000000000000000000000000000000000000005f52603160045260245ffdfea2646970667358221220d66ca11fea449b9faf880ad1262d648194c10d9ce855cbaed86a654986ff706064736f6c63430008220033","linkReferences":{}},"methodIdentifiers":{"commitMove(uint256,uint256)":"988f4043","createPrivateGame(uint256,uint256)":"6b47db7e","joinPrivateGame(uint256,uint256)":"7b21849a","joinRandomQueue(uint256)":"ce2ff57e","nextDuelId()":"549ec614","randomQueue(uint256)":"d5ab18d3","resolveDuel(uint256)":"cdd69a12"},"id":16}