{"abi":[{"type":"constructor","inputs":[],"stateMutability":"nonpayable"},{"type":"function","name":"commitMove","inputs":[{"name":"duelId","type":"uint256","internalType":"uint256"},{"name":"_move","type":"uint256","internalType":"suint"}],"outputs":[],"stateMutability":"nonpayable"},{"type":"function","name":"createPrivateGame","inputs":[{"name":"_code","type":"uint256","internalType":"suint"},{"name":"_wager","type":"uint256","internalType":"suint"}],"outputs":[],"stateMutability":"payable"},{"type":"function","name":"joinPrivateGame","inputs":[{"name":"duelId","type":"uint256","internalType":"uint256"},{"name":"_attemptCode","type":"uint256","internalType":"suint"}],"outputs":[],"stateMutability":"payable"},{"type":"function","name":"joinRandomQueue","inputs":[{"name":"_wager","type":"uint256","internalType":"suint"}],"outputs":[],"stateMutability":"payable"},{"type":"function","name":"nextDuelId","inputs":[],"outputs":[{"name":"","type":"uint256","internalType":"uint256"}],"stateMutability":"view"},{"type":"function","name":"owner","inputs":[],"outputs":[{"name":"","type":"address","internalType":"address"}],"stateMutability":"view"},{"type":"function","name":"randomQueue","inputs":[{"name":"","type":"uint256","internalType":"uint256"}],"outputs":[{"name":"","type":"uint256","internalType":"uint256"}],"stateMutability":"view"},{"type":"function","name":"resolveDuel","inputs":[{"name":"duelId","type":"uint256","internalType":"uint256"}],"outputs":[],"stateMutability":"nonpayable"},{"type":"function","name":"setOwner","inputs":[{"name":"_owner","type":"address","internalType":"address"}],"outputs":[],"stateMutability":"nonpayable"},{"type":"event","name":"DuelCreated","inputs":[{"name":"duelId","type":"uint256","indexed":true,"internalType":"uint256"},{"name":"isPrivate","type":"bool","indexed":false,"internalType":"bool"},{"name":"creator","type":"address","indexed":true,"internalType":"address"}],"anonymous":false},{"type":"event","name":"DuelResolved","inputs":[{"name":"duelId","type":"uint256","indexed":true,"internalType":"uint256"},{"name":"winner","type":"address","indexed":false,"internalType":"address"}],"anonymous":false},{"type":"event","name":"MatchFound","inputs":[{"name":"duelId","type":"uint256","indexed":true,"internalType":"uint256"}],"anonymous":false},{"type":"event","name":"MoveCommitted","inputs":[{"name":"duelId","type":"uint256","indexed":true,"internalType":"uint256"},{"name":"player","type":"address","indexed":true,"internalType":"address"}],"anonymous":false},{"type":"event","name":"PlayerJoined","inputs":[{"name":"duelId","type":"uint256","indexed":true,"internalType":"uint256"},{"name":"player","type":"address","indexed":true,"internalType":"address"}],"anonymous":false}],"bytecode":{"object":"0x6080604052348015600e575f5ffd5b50335f5f6101000a81548173ffffffffffffffffffffffffffffffffffffffff021916908373ffffffffffffffffffffffffffffffffffffffff16021790555061187c8061005b5f395ff3fe608060405260043610610085575f3560e01c80638da5cb5b116100585780638da5cb5b14610113578063988f40431461013d578063cdd69a1214610165578063ce2ff57e1461018d578063d5ab18d3146101a957610085565b806313af403514610089578063549ec614146100b15780636b47db7e146100db5780637b21849a146100f7575b5f5ffd5b348015610094575f5ffd5b506100af60048036038101906100aa9190610fe9565b6101e5565b005b3480156100bc575f5ffd5b506100c56102b5565b6040516100d2919061102c565b60405180910390f35b6100f560048036038101906100f0919061106f565b6102bb565b005b610111600480360381019061010c91906110d7565b610448565b005b34801561011e575f5ffd5b506101276105d4565b6040516101349190611124565b60405180910390f35b348015610148575f5ffd5b50610163600480360381019061015e91906110d7565b6105f8565b005b348015610170575f5ffd5b5061018b6004803603810190610186919061113d565b6106d3565b005b6101a760048036038101906101a29190611168565b6106df565b005b3480156101b4575f5ffd5b506101cf60048036038101906101ca919061113d565b6109f0565b6040516101dc919061102c565b60405180910390f35b5f5f9054906101000a900473ffffffffffffffffffffffffffffffffffffffff1673ffffffffffffffffffffffffffffffffffffffff163373ffffffffffffffffffffffffffffffffffffffff1614610273576040517f08c379a000000000000000000000000000000000000000000000000000000000815260040161026a906111ed565b60405180910390fd5b805f5f6101000a81548173ffffffffffffffffffffffffffffffffffffffff021916908373ffffffffffffffffffffffffffffffffffffffff16021790555050565b60055481565b5f819050803414610301576040517f08c379a00000000000000000000000000000000000000000000000000000000081526004016102f890611255565b60405180910390fd5b5f60055f815480929190610314906112a0565b9190505590503360025f8381526020019081526020015f205f015f6101000a81548173ffffffffffffffffffffffffffffffffffffffff021916908373ffffffffffffffffffffffffffffffffffffffff1602179055508260025f8381526020019081526020015f2060040181905550600160025f8381526020019081526020015f206005015f6101000a81548160ff0219169083151502179055505f60025f8381526020019081526020015f2060050160016101000a81548160ff0219169083151502179055508360035f8381526020019081526020015f20819055503373ffffffffffffffffffffffffffffffffffffffff16817f1a359d6c577b59d148bb1a420ef38ac4a389b04a5886d9de3fb3259c79e2576b600160405161043a9190611301565b60405180910390a350505050565b5f60025f8481526020019081526020015f209050806005015f9054906101000a900460ff166104ac576040517f08c379a00000000000000000000000000000000000000000000000000000000081526004016104a390611364565b60405180910390fd5b8060050160019054906101000a900460ff16156104fe576040517f08c379a00000000000000000000000000000000000000000000000000000000081526004016104f5906113cc565b60405180910390fd5b5f81600401549050803414610548576040517f08c379a000000000000000000000000000000000000000000000000000000000815260040161053f90611255565b60405180910390fd5b33826001015f6101000a81548173ffffffffffffffffffffffffffffffffffffffff021916908373ffffffffffffffffffffffffffffffffffffffff1602179055503373ffffffffffffffffffffffffffffffffffffffff16847f87969bc7faf902221a147b95ceba76e011c5efb0339a0a8ee7a2bb82d9cfbbd660405160405180910390a350505050565b5f5f9054906101000a900473ffffffffffffffffffffffffffffffffffffffff1681565b5f60025f8481526020019081526020015f2090508060050160019054906101000a900460ff161561065e576040517f08c379a000000000000000000000000000000000000000000000000000000000815260040161065590611434565b60405180910390fd5b5f8160020154036106775781816002018190555061068a565b81816003018190555061068983610a10565b5b3373ffffffffffffffffffffffffffffffffffffffff16837f1d3cf81927da212fdd71794079b5b6a4915c8e82ae6486396a4a635d7b641d7260405160405180910390a3505050565b6106dc81610a10565b50565b5f81905067016345785d8a0000811461072d576040517f08c379a0000000000000000000000000000000000000000000000000000000008152600401610724906114c2565b60405180910390fd5b80341461076f576040517f08c379a00000000000000000000000000000000000000000000000000000000081526004016107669061152a565b60405180910390fd5b5f600480549050111561089b575f600460016004805490506107919190611548565b815481106107a2576107a161157b565b5b905f5260205f200154905060048054806107bf576107be6115a8565b5b600190038181905f5260205f20015f905590553360025f8381526020019081526020015f206001015f6101000a81548173ffffffffffffffffffffffffffffffffffffffff021916908373ffffffffffffffffffffffffffffffffffffffff160217905550807fd5823cd294189b4914ca85b168abcdb1437a06d7ad1309ff8b4d566d637b70d460405160405180910390a23373ffffffffffffffffffffffffffffffffffffffff16817f87969bc7faf902221a147b95ceba76e011c5efb0339a0a8ee7a2bb82d9cfbbd660405160405180910390a3506109ec565b5f60055f8154809291906108ae906112a0565b9190505590503360025f8381526020019081526020015f205f015f6101000a81548173ffffffffffffffffffffffffffffffffffffffff021916908373ffffffffffffffffffffffffffffffffffffffff1602179055508260025f8381526020019081526020015f20600401819055505f60025f8381526020019081526020015f206005015f6101000a81548160ff0219169083151502179055505f60025f8381526020019081526020015f2060050160016101000a81548160ff021916908315150217905550600481908060018154018082558091505060019003905f5260205f20015f90919091909150553373ffffffffffffffffffffffffffffffffffffffff16817f1a359d6c577b59d148bb1a420ef38ac4a389b04a5886d9de3fb3259c79e2576b5f6040516109e29190611301565b60405180910390a3505b5050565b600481815481106109ff575f80fd5b905f5260205f20015f915090505481565b5f60025f8381526020019081526020015f2090508060050160019054906101000a900460ff1615610a76576040517f08c379a0000000000000000000000000000000000000000000000000000000008152600401610a6d9061161f565b60405180910390fd5b5f816002015414158015610a8e57505f816003015414155b610acd576040517f08c379a0000000000000000000000000000000000000000000000000000000008152600401610ac490611687565b60405180910390fd5b5f6003826003015460038460020154610ae691906116a5565b610af09190611548565b610afa9190611705565b905060018260050160016101000a81548160ff0219169083151502179055505f825f015f9054906101000a900473ffffffffffffffffffffffffffffffffffffffff1690505f836001015f9054906101000a900473ffffffffffffffffffffffffffffffffffffffff1690505f5f905060018403610cc4578290505f8373ffffffffffffffffffffffffffffffffffffffff1667025bf6196bd10000604051610ba290611762565b5f6040518083038185875af1925050503d805f8114610bdc576040519150601f19603f3d011682016040523d82523d5f602084013e610be1565b606091505b505090505f5f5f9054906101000a900473ffffffffffffffffffffffffffffffffffffffff1673ffffffffffffffffffffffffffffffffffffffff16666a94d74f430000604051610c3190611762565b5f6040518083038185875af1925050503d805f8114610c6b576040519150601f19603f3d011682016040523d82523d5f602084013e610c70565b606091505b50509050818015610c7e5750805b610cbd576040517f08c379a0000000000000000000000000000000000000000000000000000000008152600401610cb4906117c0565b60405180910390fd5b5050610f4b565b60028403610e1e578190505f8273ffffffffffffffffffffffffffffffffffffffff1667025bf6196bd10000604051610cfc90611762565b5f6040518083038185875af1925050503d805f8114610d36576040519150601f19603f3d011682016040523d82523d5f602084013e610d3b565b606091505b505090505f5f5f9054906101000a900473ffffffffffffffffffffffffffffffffffffffff1673ffffffffffffffffffffffffffffffffffffffff16666a94d74f430000604051610d8b90611762565b5f6040518083038185875af1925050503d805f8114610dc5576040519150601f19603f3d011682016040523d82523d5f602084013e610dca565b606091505b50509050818015610dd85750805b610e17576040517f08c379a0000000000000000000000000000000000000000000000000000000008152600401610e0e906117c0565b60405180910390fd5b5050610f4a565b5f8373ffffffffffffffffffffffffffffffffffffffff1667016345785d8a0000604051610e4b90611762565b5f6040518083038185875af1925050503d805f8114610e85576040519150601f19603f3d011682016040523d82523d5f602084013e610e8a565b606091505b505090505f8373ffffffffffffffffffffffffffffffffffffffff1667016345785d8a0000604051610ebb90611762565b5f6040518083038185875af1925050503d805f8114610ef5576040519150601f19603f3d011682016040523d82523d5f602084013e610efa565b606091505b50509050818015610f085750805b610f47576040517f08c379a0000000000000000000000000000000000000000000000000000000008152600401610f3e90611828565b60405180910390fd5b50505b5b857fed745e61999ea4f92d153523120103236a773a136c3c411f30f266959c81119082604051610f7b9190611124565b60405180910390a2505050505050565b5f5ffd5b5f73ffffffffffffffffffffffffffffffffffffffff82169050919050565b5f610fb882610f8f565b9050919050565b610fc881610fae565b8114610fd2575f5ffd5b50565b5f81359050610fe381610fbf565b92915050565b5f60208284031215610ffe57610ffd610f8b565b5b5f61100b84828501610fd5565b91505092915050565b5f819050919050565b61102681611014565b82525050565b5f60208201905061103f5f83018461101d565b92915050565b61104e81611014565b8114611058575f5ffd5b50565b5f8135905061106981611045565b92915050565b5f5f6040838503121561108557611084610f8b565b5b5f6110928582860161105b565b92505060206110a38582860161105b565b9150509250929050565b6110b681611014565b81146110c0575f5ffd5b50565b5f813590506110d1816110ad565b92915050565b5f5f604083850312156110ed576110ec610f8b565b5b5f6110fa858286016110c3565b925050602061110b8582860161105b565b9150509250929050565b61111e81610fae565b82525050565b5f6020820190506111375f830184611115565b92915050565b5f6020828403121561115257611151610f8b565b5b5f61115f848285016110c3565b91505092915050565b5f6020828403121561117d5761117c610f8b565b5b5f61118a8482850161105b565b91505092915050565b5f82825260208201905092915050565b7f4f6e6c79206f776e6572000000000000000000000000000000000000000000005f82015250565b5f6111d7600a83611193565b91506111e2826111a3565b602082019050919050565b5f6020820190508181035f830152611204816111cb565b9050919050565b7f5761676572206d757374206d61746368206d73672e76616c75650000000000005f82015250565b5f61123f601a83611193565b915061124a8261120b565b602082019050919050565b5f6020820190508181035f83015261126c81611233565b9050919050565b7f4e487b71000000000000000000000000000000000000000000000000000000005f52601160045260245ffd5b5f6112aa82611014565b91507fffffffffffffffffffffffffffffffffffffffffffffffffffffffffffffffff82036112dc576112db611273565b5b600182019050919050565b5f8115159050919050565b6112fb816112e7565b82525050565b5f6020820190506113145f8301846112f2565b92915050565b7f4e6f74206120707269766174652067616d6500000000000000000000000000005f82015250565b5f61134e601283611193565b91506113598261131a565b602082019050919050565b5f6020820190508181035f83015261137b81611342565b9050919050565b7f4475656c20616c7265616479207265736f6c76656400000000000000000000005f82015250565b5f6113b6601583611193565b91506113c182611382565b602082019050919050565b5f6020820190508181035f8301526113e3816113aa565b9050919050565b7f4475656c20697320636f6d706c657465000000000000000000000000000000005f82015250565b5f61141e601083611193565b9150611429826113ea565b602082019050919050565b5f6020820190508181035f83015261144b81611412565b9050919050565b7f517569636b204d617463682072657175697265732065786163746c7920302e315f8201527f2053454953000000000000000000000000000000000000000000000000000000602082015250565b5f6114ac602583611193565b91506114b782611452565b604082019050919050565b5f6020820190508181035f8301526114d9816114a0565b9050919050565b7f496e636f72726563742057616765722053656e740000000000000000000000005f82015250565b5f611514601483611193565b915061151f826114e0565b602082019050919050565b5f6020820190508181035f83015261154181611508565b9050919050565b5f61155282611014565b915061155d83611014565b925082820390508181111561157557611574611273565b5b92915050565b7f4e487b71000000000000000000000000000000000000000000000000000000005f52603260045260245ffd5b7f4e487b71000000000000000000000000000000000000000000000000000000005f52603160045260245ffd5b7f416c7265616479207265736f6c766564000000000000000000000000000000005f82015250565b5f611609601083611193565b9150611614826115d5565b602082019050919050565b5f6020820190508181035f830152611636816115fd565b9050919050565b7f4d6f766573206e6f7420726561647900000000000000000000000000000000005f82015250565b5f611671600f83611193565b915061167c8261163d565b602082019050919050565b5f6020820190508181035f83015261169e81611665565b9050919050565b5f6116af82611014565b91506116ba83611014565b92508282019050808211156116d2576116d1611273565b5b92915050565b7f4e487b71000000000000000000000000000000000000000000000000000000005f52601260045260245ffd5b5f61170f82611014565b915061171a83611014565b92508261172a576117296116d8565b5b828206905092915050565b5f81905092915050565b50565b5f61174d5f83611735565b91506117588261173f565b5f82019050919050565b5f61176c82611742565b9150819050919050565b7f5061796f7574206661696c6564000000000000000000000000000000000000005f82015250565b5f6117aa600d83611193565b91506117b582611776565b602082019050919050565b5f6020820190508181035f8301526117d78161179e565b9050919050565b7f526566756e64206661696c6564000000000000000000000000000000000000005f82015250565b5f611812600d83611193565b915061181d826117de565b602082019050919050565b5f6020820190508181035f83015261183f81611806565b905091905056fea2646970667358221220b32d7aa999c665bb711728eaa19ea28f3194b5fedc103bf4501869655522a93164736f6c63430008220033","linkReferences":{}},"methodIdentifiers":{"commitMove(uint256,uint256)":"988f4043","createPrivateGame(uint256,uint256)":"6b47db7e","joinPrivateGame(uint256,uint256)":"7b21849a","joinRandomQueue(uint256)":"ce2ff57e","nextDuelId()":"549ec614","owner()":"8da5cb5b","randomQueue(uint256)":"d5ab18d3","resolveDuel(uint256)":"cdd69a12","setOwner(address)":"13af4035"},"id":16}