{"abi":[{"type":"constructor","inputs":[],"stateMutability":"nonpayable"},{"type":"receive","stateMutability":"payable"},{"type":"function","name":"WAGER","inputs":[],"outputs":[{"name":"","type":"uint256","internalType":"uint256"}],"stateMutability":"view"},{"type":"function","name":"WIN_PAYOUT","inputs":[],"outputs":[{"name":"","type":"uint256","internalType":"uint256"}],"stateMutability":"view"},{"type":"function","name":"depositHouseFunds","inputs":[],"outputs":[],"stateMutability":"payable"},{"type":"function","name":"duelAI","inputs":[{"name":"pMove","type":"uint256","internalType":"suint"}],"outputs":[],"stateMutability":"payable"},{"type":"function","name":"getLeaderboard","inputs":[],"outputs":[{"name":"","type":"address[]","internalType":"address[]"},{"name":"","type":"uint256[]","internalType":"uint256[]"},{"name":"","type":"uint256[]","internalType":"uint256[]"}],"stateMutability":"view"},{"type":"function","name":"owner","inputs":[],"outputs":[{"name":"","type":"address","internalType":"address"}],"stateMutability":"view"},{"type":"function","name":"playerList","inputs":[{"name":"","type":"uint256","internalType":"uint256"}],"outputs":[{"name":"","type":"address","internalType":"address"}],"stateMutability":"view"},{"type":"function","name":"stats","inputs":[{"name":"","type":"address","internalType":"address"}],"outputs":[{"name":"wins","type":"uint256","internalType":"uint256"},{"name":"points","type":"uint256","internalType":"uint256"},{"name":"exists","type":"bool","internalType":"bool"}],"stateMutability":"view"},{"type":"function","name":"withdrawHouseFunds","inputs":[{"name":"amount","type":"uint256","internalType":"uint256"}],"outputs":[],"stateMutability":"nonpayable"},{"type":"event","name":"DuelResolved","inputs":[{"name":"player","type":"address","indexed":true,"internalType":"address"},{"name":"playerMove","type":"uint256","indexed":false,"internalType":"uint256"},{"name":"aiMove","type":"uint256","indexed":false,"internalType":"uint256"},{"name":"winner","type":"address","indexed":false,"internalType":"address"},{"name":"payout","type":"uint256","indexed":false,"internalType":"uint256"},{"name":"pointsEarned","type":"uint256","indexed":false,"internalType":"uint256"}],"anonymous":false},{"type":"event","name":"HouseFunded","inputs":[{"name":"donor","type":"address","indexed":true,"internalType":"address"},{"name":"amount","type":"uint256","indexed":false,"internalType":"uint256"}],"anonymous":false}],"bytecode":{"object":"0x6080604052348015600e575f5ffd5b50335f5f6101000a81548173ffffffffffffffffffffffffffffffffffffffff021916908373ffffffffffffffffffffffffffffffffffffffff16021790555061138a8061005b5f395ff3fe608060405260043610610089575f3560e01c80638bcdcbf3116100585780638bcdcbf31461018a5780638da5cb5b146101c8578063a07ccee9146101f2578063ada2abba146101fc578063ae6d907314610218576100de565b8063213eb8ff146100e257806365174b7c1461010c5780636d763a6e146101365780637d59441a14610162576100de565b366100de573373ffffffffffffffffffffffffffffffffffffffff167f68b5652e3b29601ecd57e94e383b10ba5e2f2726963da06839bb31da7e5dd0d9346040516100d49190610b77565b60405180910390a2005b5f5ffd5b3480156100ed575f5ffd5b506100f6610254565b6040516101039190610b77565b60405180910390f35b348015610117575f5ffd5b5061012061025f565b60405161012d9190610b77565b60405180910390f35b348015610141575f5ffd5b5061014a61026a565b60405161015993929190610d2e565b60405180910390f35b34801561016d575f5ffd5b5061018860048036038101906101839190610da6565b6104d6565b005b348015610195575f5ffd5b506101b060048036038101906101ab9190610dfb565b6105cb565b6040516101bf93929190610e40565b60405180910390f35b3480156101d3575f5ffd5b506101dc6105fd565b6040516101e99190610e84565b60405180910390f35b6101fa610621565b005b61021660048036038101906102119190610ec7565b610671565b005b348015610223575f5ffd5b5061023e60048036038101906102399190610da6565b610b24565b60405161024b9190610e84565b60405180910390f35b662386f26fc1000081565b663c6568f12e800081565b60608060605f60028054905090505f8167ffffffffffffffff81111561029357610292610ef2565b5b6040519080825280602002602001820160405280156102c15781602001602082028036833780820191505090505b5090505f8267ffffffffffffffff8111156102df576102de610ef2565b5b60405190808252806020026020018201604052801561030d5781602001602082028036833780820191505090505b5090505f8367ffffffffffffffff81111561032b5761032a610ef2565b5b6040519080825280602002602001820160405280156103595781602001602082028036833780820191505090505b5090505f5f90505b848110156104c3575f6002828154811061037e5761037d610f1f565b5b905f5260205f20015f9054906101000a900473ffffffffffffffffffffffffffffffffffffffff169050808583815181106103bc576103bb610f1f565b5b602002602001019073ffffffffffffffffffffffffffffffffffffffff16908173ffffffffffffffffffffffffffffffffffffffff168152505060015f8273ffffffffffffffffffffffffffffffffffffffff1673ffffffffffffffffffffffffffffffffffffffff1681526020019081526020015f206001015484838151811061044a57610449610f1f565b5b60200260200101818152505060015f8273ffffffffffffffffffffffffffffffffffffffff1673ffffffffffffffffffffffffffffffffffffffff1681526020019081526020015f205f01548383815181106104a9576104a8610f1f565b5b602002602001018181525050508080600101915050610361565b5082828296509650965050505050909192565b5f5f9054906101000a900473ffffffffffffffffffffffffffffffffffffffff1673ffffffffffffffffffffffffffffffffffffffff163373ffffffffffffffffffffffffffffffffffffffff1614610564576040517f08c379a000000000000000000000000000000000000000000000000000000000815260040161055b90610fa6565b60405180910390fd5b5f5f9054906101000a900473ffffffffffffffffffffffffffffffffffffffff1673ffffffffffffffffffffffffffffffffffffffff166108fc8290811502906040515f60405180830381858888f193505050501580156105c7573d5f5f3e3d5ffd5b5050565b6001602052805f5260405f205f91509050805f015490806001015490806002015f9054906101000a900460ff16905083565b5f5f9054906101000a900473ffffffffffffffffffffffffffffffffffffffff1681565b3373ffffffffffffffffffffffffffffffffffffffff167f68b5652e3b29601ecd57e94e383b10ba5e2f2726963da06839bb31da7e5dd0d9346040516106679190610b77565b60405180910390a2565b662386f26fc1000034146106ba576040517f08c379a00000000000000000000000000000000000000000000000000000000081526004016106b19061100e565b60405180910390fd5b663c6568f12e8000471015610704576040517f08c379a00000000000000000000000000000000000000000000000000000000081526004016106fb90611076565b60405180910390fd5b5f8190506001811015801561071a575060038111155b610759576040517f08c379a0000000000000000000000000000000000000000000000000000000008152600401610750906110de565b60405180910390fd5b5f6001606442334460405160200161077393929190611161565b604051602081830303815290604052805190602001205f1c61079591906111ca565b61079f9190611227565b90505f5f5f5f60015f3373ffffffffffffffffffffffffffffffffffffffff1673ffffffffffffffffffffffffffffffffffffffff1681526020019081526020015f206002015f9054906101000a900460ff166108ae576001805f3373ffffffffffffffffffffffffffffffffffffffff1673ffffffffffffffffffffffffffffffffffffffff1681526020019081526020015f206002015f6101000a81548160ff021916908315150217905550600233908060018154018082558091505060019003905f5260205f20015f9091909190916101000a81548173ffffffffffffffffffffffffffffffffffffffff021916908373ffffffffffffffffffffffffffffffffffffffff1602179055505b60288511610a4857600160036001886108c79190611227565b6108d191906111ca565b6108db9190611227565b9350339250663c6568f12e80009150609690506001805f3373ffffffffffffffffffffffffffffffffffffffff1673ffffffffffffffffffffffffffffffffffffffff1681526020019081526020015f205f015f82825461093c9190611227565b92505081905550609660015f3373ffffffffffffffffffffffffffffffffffffffff1673ffffffffffffffffffffffffffffffffffffffff1681526020019081526020015f206001015f8282546109939190611227565b925050819055505f3373ffffffffffffffffffffffffffffffffffffffff16836040516109bf90611287565b5f6040518083038185875af1925050503d805f81146109f9576040519150601f19603f3d011682016040523d82523d5f602084013e6109fe565b606091505b5050905080610a42576040517f08c379a0000000000000000000000000000000000000000000000000000000008152600401610a39906112e5565b60405180910390fd5b50610ac5565b6001600387610a5791906111ca565b610a619190611227565b93503092505f915060329050603260015f3373ffffffffffffffffffffffffffffffffffffffff1673ffffffffffffffffffffffffffffffffffffffff1681526020019081526020015f206001015f828254610abd9190611227565b925050819055505b3373ffffffffffffffffffffffffffffffffffffffff167f8ab4ee322f23c683fe40a88f6d101f3f74aa462fc743fc42b84b3b5ebe377b9f8786868686604051610b13959493929190611303565b60405180910390a250505050505050565b60028181548110610b33575f80fd5b905f5260205f20015f915054906101000a900473ffffffffffffffffffffffffffffffffffffffff1681565b5f819050919050565b610b7181610b5f565b82525050565b5f602082019050610b8a5f830184610b68565b92915050565b5f81519050919050565b5f82825260208201905092915050565b5f819050602082019050919050565b5f73ffffffffffffffffffffffffffffffffffffffff82169050919050565b5f610be282610bb9565b9050919050565b610bf281610bd8565b82525050565b5f610c038383610be9565b60208301905092915050565b5f602082019050919050565b5f610c2582610b90565b610c2f8185610b9a565b9350610c3a83610baa565b805f5b83811015610c6a578151610c518882610bf8565b9750610c5c83610c0f565b925050600181019050610c3d565b5085935050505092915050565b5f81519050919050565b5f82825260208201905092915050565b5f819050602082019050919050565b610ca981610b5f565b82525050565b5f610cba8383610ca0565b60208301905092915050565b5f602082019050919050565b5f610cdc82610c77565b610ce68185610c81565b9350610cf183610c91565b805f5b83811015610d21578151610d088882610caf565b9750610d1383610cc6565b925050600181019050610cf4565b5085935050505092915050565b5f6060820190508181035f830152610d468186610c1b565b90508181036020830152610d5a8185610cd2565b90508181036040830152610d6e8184610cd2565b9050949350505050565b5f5ffd5b610d8581610b5f565b8114610d8f575f5ffd5b50565b5f81359050610da081610d7c565b92915050565b5f60208284031215610dbb57610dba610d78565b5b5f610dc884828501610d92565b91505092915050565b610dda81610bd8565b8114610de4575f5ffd5b50565b5f81359050610df581610dd1565b92915050565b5f60208284031215610e1057610e0f610d78565b5b5f610e1d84828501610de7565b91505092915050565b5f8115159050919050565b610e3a81610e26565b82525050565b5f606082019050610e535f830186610b68565b610e606020830185610b68565b610e6d6040830184610e31565b949350505050565b610e7e81610bd8565b82525050565b5f602082019050610e975f830184610e75565b92915050565b610ea681610b5f565b8114610eb0575f5ffd5b50565b5f81359050610ec181610e9d565b92915050565b5f60208284031215610edc57610edb610d78565b5b5f610ee984828501610eb3565b91505092915050565b7f4e487b71000000000000000000000000000000000000000000000000000000005f52604160045260245ffd5b7f4e487b71000000000000000000000000000000000000000000000000000000005f52603260045260245ffd5b5f82825260208201905092915050565b7f4f6e6c79206f776e65722063616e2077697468647261770000000000000000005f82015250565b5f610f90601783610f4c565b9150610f9b82610f5c565b602082019050919050565b5f6020820190508181035f830152610fbd81610f84565b9050919050565b7f4d7573742073656e642065786163746c7920302e3031205345495300000000005f82015250565b5f610ff8601b83610f4c565b915061100382610fc4565b602082019050919050565b5f6020820190508181035f83015261102581610fec565b9050919050565b7f496e73756666696369656e7420486f7573652046756e647300000000000000005f82015250565b5f611060601883610f4c565b915061106b8261102c565b602082019050919050565b5f6020820190508181035f83015261108d81611054565b9050919050565b7f496e76616c6964206d6f766500000000000000000000000000000000000000005f82015250565b5f6110c8600c83610f4c565b91506110d382611094565b602082019050919050565b5f6020820190508181035f8301526110f5816110bc565b9050919050565b5f819050919050565b61111661111182610b5f565b6110fc565b82525050565b5f8160601b9050919050565b5f6111328261111c565b9050919050565b5f61114382611128565b9050919050565b61115b61115682610bd8565b611139565b82525050565b5f61116c8286611105565b60208201915061117c828561114a565b60148201915061118c8284611105565b602082019150819050949350505050565b7f4e487b71000000000000000000000000000000000000000000000000000000005f52601260045260245ffd5b5f6111d482610b5f565b91506111df83610b5f565b9250826111ef576111ee61119d565b5b828206905092915050565b7f4e487b71000000000000000000000000000000000000000000000000000000005f52601160045260245ffd5b5f61123182610b5f565b915061123c83610b5f565b9250828201905080821115611254576112536111fa565b5b92915050565b5f81905092915050565b50565b5f6112725f8361125a565b915061127d82611264565b5f82019050919050565b5f61129182611267565b9150819050919050565b7f5061796f7574206661696c6564000000000000000000000000000000000000005f82015250565b5f6112cf600d83610f4c565b91506112da8261129b565b602082019050919050565b5f6020820190508181035f8301526112fc816112c3565b9050919050565b5f60a0820190506113165f830188610b68565b6113236020830187610b68565b6113306040830186610e75565b61133d6060830185610b68565b61134a6080830184610b68565b969550505050505056fea2646970667358221220a7320042ced9e8119430a0614233a15d0ff32b95090dd93a073b3aa10a01ed0764736f6c63430008220033","linkReferences":{}},"methodIdentifiers":{"WAGER()":"213eb8ff","WIN_PAYOUT()":"65174b7c","depositHouseFunds()":"a07ccee9","duelAI(uint256)":"ada2abba","getLeaderboard()":"6d763a6e","owner()":"8da5cb5b","playerList(uint256)":"ae6d9073","stats(address)":"8bcdcbf3","withdrawHouseFunds(uint256)":"7d59441a"},"id":16}